:100000000C943C000C944E000C944E000C944E004A
:100010000C944E000C944E000C944E000C944E0028
:100020000C944E000C944E000C944E000C944E0018
:100030000C944E000C944E000C944E000C944E0008
:100040000C9450000C944E000C944E000C944E00F6
:100050000C944E000C944E000C944E000C944E00E8
:100060000C944E000C944E0077018301860192019E
:100070009501A101A401B00111241FBECFEFD8E06A
:10008000DEBFCDBF21E0A0E0B1E001C01D92A830ED
:10009000B207E1F70E9417010C9414020C940000BF
:1000A0001F920F920FB60F9211242F933F934F93ED
:1000B0005F936F937F938F939F93AF93BF93EF93D0
:1000C000FF9360910201709103018091040190916E
:1000D00005010E94B60167BDFF91EF91BF91AF91FD
:1000E0009F918F917F916F915F914F913F912F9150
:1000F0000F900FBE0F901F90189580E090E0AFE733
:10010000B3E48093020190930301A0930401B093A0
:10011000050181E088B92FEF31E291EA21503040AA
:100120009040E1F700C0000018B840E050E068ECF3
:1001300072E44093020150930301609304017093B1
:10014000050188B92FEF30E782E021503040804030
:10015000E1F700C00000109202011092030110921A
:1001600004011092050118B8089580E090E0AAEF0C
:10017000B2E48093020190930301A0930401B09331
:10018000050182E088B92FEF80EA97E7215080408F
:100190009040E1F700C000001092020110920301AC
:1001A000109204011092050118B8089510920201EE
:1001B00010920301109204011092050118B82FEF5C
:1001C00083ED90E3215080409040E1F700C00000B3
:1001D00008952FEF81E19AE7215080409040E1F7A8
:1001E00000C0000080E090E0A8E4B2E48093020147
:1001F00090930301A0930401B093050182E088B9B4
:100200002FEF87E893E1215080409040E1F700C054
:10021000000080E090E0A0E4B0E4809302019093BD
:100220000301A0930401B093050118B8089580E478
:100230008AB91BB88FEF87B918B814B885B983E8A5
:1002400084BD81E080936E00609102017091030192
:1002500080910401909105010E94B60167BD7894D8
:1002600085E085BD83B180FBEE24E0F8F12CF092AF
:100270000701E092060121E0E216F104A9F4809161
:10028000000190910101019690930101809300017A
:1002900083B1082F017010E010930701009306014D
:1002A00001301105A9F316C0809100019091010160
:1002B00001969093010180930001EF2859F483B1D6
:1002C0008170C82F80E0D82FD0930701C09306011A
:1002D000CD2BA9F3E0910001F09101013197E830B5
:1002E000F10508F040C0EC5CFF4F0C940E029FEF4C
:1002F00023ED80E3915020408040E1F700C00000F2
:100300000E947D00AFCF0E94E900ACCF9FEF23EDAC
:1003100080E3915020408040E1F700C000000E943F
:10032000B500A0CF0E94D6009DCF9FEF23ED80E3C4
:10033000915020408040E1F700C000000E947D0005
:1003400091CF0E94E9008ECF9FEF23ED80E3915083
:1003500020408040E1F700C000000E94B50082CF3D
:100360000E94D6007FCF0E94D6007CCF0E94ED0174
:1003700088F09F5798F0B92F9927B751B0F0E1F066
:10038000660F771F881F991F1AF0BA95C9F714C016
:10039000B13091F00E940702B1E008950C94070279
:1003A000672F782F8827B85F39F0B93FCCF386954F
:1003B00077956795B395D9F73EF4909580957095AC
:1003C00061957F4F8F4F9F4F089557FD9058440F71
:1003D000551F59F05F3F71F04795880F97FB991FA4
:1003E00061F09F3F79F08795089512161306140661
:1003F000551FF2CF4695F1DF08C0161617061806EE
:10040000991FF1CF86957105610508940895E894C8
:10041000BB2766277727CB0197F90895EE0FFF1FBB
:0C0420000590F491E02D0994F894FFCFB2
:00000001FF
