S01700004763634170706C69636174696F6E362E7372656356
S113000083C00000D7C00000A0C000009EC0000054
S11300109CC000009AC0000098C0000096C0000078
S113002094C0000092C0000090C000008EC0000088
S11300308CC000008AC0000088C0000086C0000098
S113004084C0000082C0000080C000007EC00000A8
S11300507CC000007AC0000078C0000076C00000B8
S113006074C0000072C0000070C000006EC00000C8
S11300706CC000006AC0000068C0000066C00000D8
S113008064C0000062C0000060C000005EC00000E8
S11300905CC000005AC0000058C0000056C00000F8
S11300A054C0000052C0000050C000004EC0000008
S11300B04CC000004AC0000048C0000046C0000018
S11300C044C0000042C0000040C000003EC0000028
S11300D03CC000003AC0000038C0000036C0000038
S11300E034C0000046148014C6140C1529154C1590
S11300F06F157F159C15DC1542169B16D616111725
S11301006117BA176418AA1811241FBECFEFD1E2E1
S1130110DEBFCDBF00E00CBF12E0A0E0B2E0EAE831
S1130120FCE300E00BBF02C007900D92A836B107B4
S1130130D9F723E0A8E6B2E001C01D92A135B207C9
S1130140E1F70E94F71A0C94431E5ACF0F931F93A2
S11301508B019C01992384F415C00196813DE7E04D
S11301609E07D9F74F5F5F4F6F4F7F4F04171507F7
S11301702607370724F406C040E050E0BA0180E0C7
S113018090E0EBCF1F910F9108958FEF80930101C1
S11301908093020108958EEF8AB981E08BB98FEFC5
S11301A084B90895F89482E08093690081E08DBB5E
S11301B0789408951F920F920FB60F9211248F9383
S11301C09F938091730290917402019690937402AC
S11301D0809373029F918F910F900FBE0F901F9089
S11301E018956C9A749A08956D9A759A0895E1E930
S11301F0F0E010828CEF8093950081E0809394006E
S113020093E0909399008FEF8093980090939B00D4
S113021080939A0090939D0080939C009093970004
S1130220809396008BEA80939000109292008CE069
S11302308083089583E080939B008FEF80939A00DE
S1130240089583E080939D008FEF80939C00089530
S113025087B1876F87B988B1807888B90895429843
S11302604098419A88B18F7088B987B18F7087B9E7
S113027088B188B9429A4298429A42984799FACFEB
S11302804298419887B1887087B987B1876F87B9D9
S113029080E0089542984098419898B19F7098B929
S11302A098B1282F207F922B98B9429A429898B1FE
S11302B09F7098B998B18295807F892B88B9429AAA
S11302C04298CDDF8111FDCF81EE94E00197F1F7E3
S11302D000C0000008954298409A419898B19F70D8
S11302E098B998B1282F207F922B98B9429A4298B6
S11302F098B19F7098B998B18295807F892B88B9FD
S1130300429A429889EF90E00197F1F700C000000B
S1130310089580E2BFDF88E2BDDF8CE0BBDF86E0CA
S1130320B9DF81E0B7CF0895823069F018F48130E5
S113033031F00895833059F0843069F008958FE7DF
S1130340860FA8CF08958FEB860FA4CF089583E975
S1130350860FA0CF089583ED860F9CCF0895CF9389
S1130360DF93EC018881882329F02196B4DF8991F9
S11303708111FCCFDF91CF91089580E88BCF089550
S1130380CF92DF92EF92FF926623B1F0C82ED12C68
S1130390E12CF12CEFEFE60FA1F0682F7D2D8E2DCF
S11303A09F2D262F372F482F592FC701B6010E94A2
S11303B0311BE150B1F709C061E070E080E090E0EA
S11303C004C0682F7D2D8E2D9F2DFF90EF90DF9020
S11303D0CF900895CF92DF92EF92FF926B017C0150
S11303E06FEF640F8AE0CCDF9B01AC01C701B6015B
S11303F00E94401BCA01B9012AE030E040E050E00D
S11304000E94401B80E3860FFF90EF90DF90CF9017
S11304100895CF92DF92EF92FF920F931F93690199
S11304207A01882311F0611102C0A7DF01C07CDFCB
S11304300B3011051CF088E54EDF09C0002339F0AC
S1130440402FC701B601C6DF46DF0150C9F71F912F
S11304500F91FF90EF90DF90CF90089510BA11BAEA
S113046010920701109208010895EAE7F0E0108263
S113047010927B0080E280937C0080E880BF86E855
S113048080830895E1E2F1E010828FEF80932501EB
S113049091E09093240110922901809328011092F5
S11304A02B0180932A0110922D0180932C0189EA5B
S11304B0809320018BE08083089592B1907F8F70A8
S11304C0982B92B9089586E0F8CF089580E0F5CF8F
S11304D0089588EC8093280180932A0185E0EDCF6C
S11304E0089588EC8093280180932A018AE0E5CF5F
S11304F00895883018F098E090937B008770806EA0
S113050080937C00EAE7F0E08081806480838081CE
S113051084FFFDCF80917900EAE7F0E0908190615B
S1130520908310927B000895CF93DF93D82FC62F2A
S1130530842FDFDF8093FD02482F50E06C2F70E0A2
S113054023E030E08D2F90E064DFDF91CF910895B8
S1130550149A08951498089581B18FEF81B982B1E6
S1130560807F82B9EAE0F1E0808188618083EBE0FA
S1130570F1E080818861808308950DDE13DE68DEFA
S11305806DDFEADF02DE2DDE2FCE0895F894F5DF6D
S11305906CDF78DF2CDE7894089581E0AADF809305
S11305A0720282E0A6DF8093710283E0A2DF80936F
S11305B0700243E061E081E0B7DF42E065E081E0A2
S11305C0B3DF41E069E081E0AFCF0895EF92FF929D
S11305D00F931F93CF93DF93E0DF809172028739EB
S11305E0E8F1909171029639C8F5909170029639AC
S11305F0A8F50F2EF8E2EF2EFF24F394F02D0AE273
S113060011E0C8EC80917202863950F49091710225
S1130610973930F090917002963908F087C09AC0EB
S1130620873908F487C090917102973908F092C015
S113063090917002973930F080917102873908F4F3
S11306405EC088C0873908F45AC080917102873926
S113065008F455C0973908F452C07CC0863908F0B4
S113066047C080917102873960F090917002963989
S113067040F493DF28DF8FEF8093280180932A01D1
S113068069C08639A8F580917002873988F10F2EE8
S1130690F8E2EF2EFF24F394F02D1CEDCAE2D1E032
S11306A080917202863950F490917102973930F03A
S11306B090917002963908F043C04CC0873908F411
S11306C043C090917102973908F044C09091700230
S11306D0973928F0809171028739E8F03BC0873957
S11306E0D0F0809171028739B0F09739A0F032C010
S11306F0EADE8FEF8093280180932A012BC04DDF1F
S1130700E2DEF7011082F801C0836EE170E080E060
S113071090E01CDD77CF41DFD6DEF701108318822D
S11307206EE170E080E090E011DDBACF873908F423
S11307307FCF10C080917002873908F07DCFDFCF62
S1130740873908F4C3CF06C080917002873908F056
S1130750C1CFE1CF80E090E0DF91CF911F910F9165
S1130760FF90EF900895EF92FF920F931F93CF9312
S1130770DF9313DF809172028739E8F1909171025F
S11307809639C8F5909170029639A8F50F2EF8E2C3
S1130790EF2EFF24F394F02D0AE211E0C2E88091D9
S11307A07202863950F490917102973930F0909129
S11307B07002963908F087C09AC0873908F487C058
S11307C090917102973908F092C090917002973914
S11307D030F080917102873908F45EC088C087398F
S11307E008F45AC080917102873908F455C09739CA
S11307F008F452C07CC0863908F047C08091710269
S1130800873960F090917002963940F4C6DE5BDE61
S113081082E88093280180932A0169C08639A8F56B
S113082080917002873988F10F2EF8E2EF2EFF24B1
S1130830F394F02D12E8CAE2D1E080917202863975
S113084050F490917102973930F09091700296397A
S113085008F043C04CC0873908F443C0909171023A
S1130860973908F044C090917002973928F080912C
S113087071028739E8F03BC08739D0F0809171026A
S11308808739B0F09739A0F032C01DDE82E880933A
S1130890280180932A012BC080DE15DEF701108227
S11308A0F801C0836EE170E080E090E04FDC77CF28
S11308B074DE09DEF701108318826EE170E080E0D7
S11308C090E044DCBACF873908F47FCF10C0809120
S11308D07002873908F07DCFDFCF873908F4C3CFA2
S11308E006C080917002873908F0C1CFE1CF80E063
S11308F090E0DF91CF911F910F91FF90EF900895B9
S113090027DE64E670E080E090E020DC23DE64E62D
S113091070E080E090E01ACC08950097D1F4613043
S1130920710551F44230510509F415C74C30510595
S113093011F00C942F0E12C76D30710509F0F4C438
S11309404C30510509F40DC74E30510509F002C76A
S11309500BC78130910511F56115710531F44D30E6
S1130960510511F00C94330E02C76230710521F465
S11309704330510571F4FEC66C30710509F0E5C4CD
S11309804D30510509F4F9C64B30510509F0E2C662
S1130990F7C64E31510509F0DDC6F5C68230910522
S11309A0D1F46130710551F44115510509F4EEC6D5
S11309B04C30510511F00C94370EEBC663307105C1
S11309C009F0D5C44430510509F4E6C64A3051054E
S11309D009F0C0C6E4C68330910519F5623071058B
S11309E031F44130510511F00C943B0EDBC66430F8
S11309F0710531F44530510511F00C943F0ED5C604
S1130A006A30710509F0C2C44B30510509F4D0C6EF
S1130A104930510509F4CFC64B31510509F09AC646
S1130A20CDC684309105E9F46330710549F4423050
S1130A30510509F4C6C64A30510509F08BC6C4C62F
S1130A406530710509F0B0C44630510509F4BFC6DC
S1130A504830510509F4BEC64032510509F07AC642
S1130A60BCC68530910569F56430710531F44330B5
S1130A70510511F00C94430EB3C668307105B9F4F6
S1130A804930510579F48FEF8093280180932A012E
S1130A901ADD64E670E080E090E058DB22E030E0AC
S1130AA00C942C0E4730510509F054C69CC6663090
S1130AB0710509F08AC44730510511F00C94470EB2
S1130AC095C686309105E9F46730710549F44830DC
S1130AD0510509F48EC64431510509F03BC68CC654
S1130AE06530710509F083C44830510509F487C69F
S1130AF04430510509F486C64032510509F02AC62E
S1130B0084C68730910511F56630710531F445309E
S1130B10510511F00C944B0E7BC66830710549F4F5
S1130B204530510509F477C64930510509F012C61C
S1130B3075C66431710509F068C44B30510509F478
S1130B4070C64531510509F005C66EC68830910559
S1130B5049F56930710549F44A30510509F467C60D
S1130B604231510509F0F6C565C66730710549F48F
S1130B704431510509F461C64630510509F0EAC50E
S1130B805FC66530710509F051C44430510509F45C
S1130B905AC64630510509F459C64032510509F088
S1130BA0D9C557C68930910509F05BC06830710515
S1130BB0B9F44530510579F486DC86E9809328013F
S1130BC080932A0164E670E080E090E0BFDA23E0DD
S1130BD030E00C942C0E4730510509F0BBC53CC6DF
S1130BE06A307105F9F44B30510599F46CDC1092BC
S1130BF0280186E980932A0164E670E080E090E0B1
S1130C00A5DA82E076DC8639E0F321E030E00C946A
S1130C102C0E4B31510509F422C64330510509F01D
S1130C2099C520C66231710509F00EC441315105E0
S1130C3099F449DC1092280186E980932A0164E63C
S1130C4070E080E090E082DA82E053DC8639E0F301
S1130C5021E030E00C942C0E4331510509F07AC5A3
S1130C6004C68A30910509F047C069307105D1F492
S1130C704830510509F4FCC54231510509F06AC5F3
S1130C8022DC1092280186E980932A0164E670E050
S1130C9080E090E05BDA82E02CDC8639E0F321E04E
S1130CA030E0DAC76330710549F44230510509F484
S1130CB0E2C54430510509F04DC5E0C56B307105FE
S1130CC009F0D0C34C30510509F4DBC5403151055E
S1130CD009F040C5F8DB1092280186E980932A01C7
S1130CE064E670E080E090E031DA82E002DC86398C
S1130CF0E0F321E030E0B0C78B309105D1F56A30E4
S1130D00710569F44B31510509F4BEC543305105F1
S1130D1009F4BDC54930510509F01CC5BBC56C308B
S1130D20710549F44130510509F4B7C54D305105F9
S1130D3009F010C5B5C56031710509F09DC34F3088
S1130D40510509F4B0C54131510509F003C5BBDBB8
S1130D501092280186E980932A0164E670E080E01D
S1130D6090E0F4D982E0C5DB8639E0F321E030E09D
S1130D7073C78C30910521F56B30710549F44A3005
S1130D80510509F493C54031510509F0E3C491C5F7
S1130D906D30710521F4452B09F0DCC48DC561303B
S1130DA0710509F07AC34115510509F488C542302B
S1130DB0510509F487C54D31510509F0CBC485C5EA
S1130DC08D30910509F56C30710549F441305105B8
S1130DD009F47EC54B30510509F0BCC47CC56115CE
S1130DE0710529F44130510509F059C777C56E30B2
S1130DF0710509F063C34631510509F472C54F30DA
S1130E00510509F0A7C470C58E309105E1F46F3027
S1130E10710529F44031510509F045C768C56D30A5
S1130E20710541F44C30510509F464C5452B09F0B2
S1130E3091C463C56631710509F04DC34232510551
S1130E4009F088C45DC58F309105E9F46E307105F1
S1130E5049F44D30510509F456C54631510509F0A0
S1130E6079C454C56031710509F043C34B30510551
S1130E7009F44FC54131510509F44EC546315105B8
S1130E8009F068C44CC58031910509F043C06F3046
S1130E90710529F44E30510509F009C743C56B307B
S1130EA07105D1F44C30510509F43FC54A30510560
S1130EB009F050C408DB1092280186E980932A01C6
S1130EC064E670E080E090E041D982E012DB86398C
S1130ED0E0F321E030E0C0C66131710509F025C3BB
S1130EE04731510509F424C54231510509F032C492
S1130EF0EADA1092280186E980932A0164E670E018
S1130F0080E090E023D982E0F4DA8639E0F321E04E
S1130F1030E0A2C68131910509F043C0603171050A
S1130F20D1F44F30510509F406C54B30510509F091
S1130F3011C4C9DA1092280186E980932A0164E673
S1130F4070E080E090E002D982E0D3DA8639E0F301
S1130F5021E030E081C662317105D1F4433151059D
S1130F6009F4ECC44930510509F0F4C3ACDA109229
S1130F70280186E980932A0164E670E080E090E02D
S1130F80E5D882E0B6DA8639E0F321E030E064C6E1
S1130F906731710509F0D7C24831510509F0DAC348
S1130FA0D0C48231910591F56331710529F444313E
S1130FB0510509F080C6C8C46930710549F44A3046
S1130FC0510509F4C4C44830510509F0C3C3C2C46F
S1130FD06131710509F0C5C24031510591F473DAEC
S1130FE01092280186E980932A0164E670E080E08B
S1130FF090E0ACD882E07DDA8639E0F322E030E09C
S11310002BC64731510509F0A5C3A7C48331910507
S1131010C9F46431710549F44531510509F4A0C49A
S11310204730510509F096C39EC46231710509F039
S1131030A6C24131510509F499C44930510509F05A
S113104089C397C484319105E9F46331710529F4A6
S11310504231510509F033C68FC46730710549F434
S11310604830510509F48BC44630510509F072C368
S113107089C46531710509F093C24532510509F0FF
S113108069C383C485319105D9F46431710509F0CC
S113109098C24331510509F47BC44730510509F026
S11310A059C37BDA02C079DA5EDB80917202873938
S11310B008F009C680917002873908F00AC6F3CF98
S11310C08631910569F46E30710509F087C24D309F
S11310D0510509F460C44F30510509F03BC35EC4A7
S11310E087319105C9F46131710549F440315105E5
S11310F009F457C44231510509F02CC355C4683171
S1131100710509F078C24931510509F450C44A31D6
S1131110510509F01FC34EC488319105C9F46731E4
S1131120710529F44131510509F014C346C46931EC
S1131130710529F44632510509F00CC341C46A31E2
S1131140710509F065C24732510509F003C33BC478
S11311508931910549F46831710509F067C2473155
S1131160510509F0F7C232C48A31910549F4683156
S1131170710509F068C24731510509F0EBC229C471
S11311808B319105C9F46A30710569F44330510516
S113119009F422C44B30510509F421C449305105E6
S11311A009F0D8C21FC46B31710509F0BFC24A30BF
S11311B0510509F0CFC219C48C31910569F4611548
S11311C0710509F04DC24D30510509F411C4413087
S11311D0510509F0B7C20FC48D31910589F461300E
S11311E0710509F048C24115510509F407C442309C
S11311F0510509F406C44C30510509F0ABC204C4CE
S11312008E31910569F46230710509F040C24330B2
S1131210510509F4FCC34130510509F09BC2FAC3DE
S11312208F31910569F46430710509F03CC2453091
S1131230510509F4F2C34330510509F08BC2F0C3E0
S11312408032910589F46530710509F038C2463061
S1131250510509F4E8C34430510509F4E7C34830A3
S1131260510509F077C2E5C38132910569F466300E
S1131270710509F02FC24530510509F4DDC347302B
S1131280510509F067C2DBC38232910549F4663126
S1131290710509F029C24E30510509F05BC2D2C371
S11312A08332910569F46F30710509F024C240312D
S11312B0510509F4CAC34E30510509F04BC2C8C3E5
S11312C08432910569F46331710509F01EC2443119
S11312D0510509F4C0C34231510509F03BC2BEC3F4
S11312E08532910549F46531710509F018C244311C
S11312F0510509F02FC2B5C38632910549F469310D
S1131300710509F013C24831510509F023C2ACC379
S1131310879709F00BC26A31710509F007C2483199
S1131320510509F017C2A3C36115710509F0D7C4AB
S11313304130510509F49EC34C31510509F49DC354
S11313404D30510509F0FEC19BC36130710509F0B0
S1131350EDC1CA018D7F892B09F495C34D31510527
S113136009F494C34C30510509F0F4C192C36230BE
S1131370710509F0DBC19A012D7F2130310509F493
S11313806BC44E31510509F0E5C186C36330710564
S113139009F0CCC1CA01877F029709F480C34430A5
S11313A0510509F0D7C17EC36430710509F0BEC18F
S11313B04330510509F479C34530510509F478C324
S11313C04F31510509F0C6C176C36530710509F086
S11313D0ADC1CA018D7F049709F470C34032510531
S11313E009F46FC34830510509F0B4C16DC36630C8
S11313F0710509F09BC1CA018D7F059709F467C384
S11314004132510509F0A6C165C36730710509F081
S11314108DC14630510509F460C34830510509F4C3
S11314205FC34431510509F095C15DC3683071054E
S113143009F07CC14930510509F458C34D7F45304A
S1131440510509F087C155C36930710509F06EC1B2
S1131450CA018D7F089709F44FC34231510509F041
S113146079C14DC36A30710509F060C14F7E4B30BC
S1131470510509F06FC146C36B30710509F056C1BF
S11314804A30510509F441C34C30510509F440C3B5
S11314904031510509F05EC13EC36C30710509F05D
S11314A045C14D30510509F439C34B30510509F498
S11314B038C34130510509F04DC136C36D30710553
S11314C009F034C1CA018D7F0C9709F430C3452B50
S11314D009F040C12FC36E30710509F027C1CA015C
S11314E08D7F0D9709F429C34631510509F032C1A6
S11314F027C36F30710549F44E30510509F423C3F5
S11315004031510509F026C121C381E063377105DB
S113151009F080E0882309F409C181E043325105D0
S113152009F080E0811115C301C16031710509F032
S1131530FDC04131510509F40FC34B7F4B305105B8
S113154009F008C10CC36131710509F0EFC0CA018B
S11315508D7F409709F406C34731510509F0FAC05D
S113156004C36231710509F0E1C0CA018D7F41975E
S113157009F4FEC24930510509F0ECC0FCC26331E4
S1131580710509F0D3C04431510509F4F7C2423161
S1131590510509F4F6C24432510509F0DBC0F4C226
S11315A06431710509F0C2C04331510509F4EFC239
S11315B04730510509F4EEC24531510509F0CAC05E
S11315C0ECC26531710509F0B1C04532510509F429
S11315D0E7C24431510509F0BDC0E5C26631710569
S11315E009F0A4C04E30510509F4E0C2423251055D
S11315F009F0B0C0DEC26731710509F097C0483107
S1131600510509F4D9C24131510509F0A3C0D7C22B
S11316106831710509F08AC0CA014997029708F434
S1131620D1C24731510509F095C0CFC26931710566
S113163009F07CC04831510509F4CAC2463251054B
S113164009F088C0C8C26A31710509F06FC0483119
S1131650510509F4C3C24732510509F07BC0C1C228
S11316606C31710509F062C0452B09F073C048D98B
S113167020E030E0F1C26D31710509F057C041300E
S1131680510509F067C03CD920E030E0E5C26E3175
S1131690710509F04BC04230510509F05BC030D9E7
S11316A020E030E0D9C26F31710509F03FC0443009
S11316B0510509F04FC024D920E030E0CDC260329A
S11316C07105A1F54530510509F044C019D920E050
S11316D030E0C2C26132710549F546305105D1F599
S11316E00FD920E030E0B8C262327105F9F4463116
S11316F0510581F579C263327105C1F44F3051054A
S113170049F5FED820E030E0A7C26432710571F4D7
S113171043315105F9F4F4D820E030E09DC265323C
S1131720710521F445315105A9F461C26632710590
S113173039F44931510571F4E3D820E030E08CC22A
S1131740672B41F44115510509F454C24D3051053C
S113175009F453C2089521E030E07EC222E030E073
S11317607BC223E030E078C221E030E075C223E0A0
S113177030E072C221E030E06FC222E030E06CC29F
S113178023E030E069C226E030E066C221E030E0C8
S113179063C223E030E060C221E030E05DC222E0B9
S11317A030E05AC221E030E057C221E030E054C2B8
S11317B022E030E051C223E030E04EC221E030E0CC
S11317C04BC221E030E048C223E030E045C221E0D2
S11317D030E042C222E030E03FC226E030E03CC2CA
S11317E021E030E039C223E030E036C222E030E0CC
S11317F033C222E030E030C221E030E02DC223E0E9
S113180030E02AC221E030E027C225E030E024C2E3
S113181023E030E021C222E030E01EC223E030E0C9
S11318201BC222E030E018C221E030E015C222E001
S113183030E012C223E030E00FC22EE030E00CC2F0
S113184023E030E009C223E030E006C222E030E0C9
S113185003C227E030E000C222E030E0FDC123E013
S113186030E0FAC122E030E0F7C123E030E0F4C117
S113187023E030E0F1C123E030E0EEC122E030E0CB
S1131880EBC122E030E0E8C122E030E0E5C123E032
S113189030E0E2C121E030E0DFC122E030E0DCC131
S11318A021E030E0D9C122E030E0D6C121E030E0CF
S11318B0D3C122E030E0D0C122E030E0CDC123E04A
S11318C030E0CAC122E030E0C7C127E030E0C4C143
S11318D023E030E0C1C121E030E0BEC122E030E0CD
S11318E0BBC123E030E0B8C123E030E0B5C121E062
S11318F030E0B2C122E030E0AFC121E030E0ACC161
S113190027E030E0A9C122E030E0A6C123E030E0C6
S1131910A3C123E030E0A0C122E030E09DC123E078
S113192030E09AC121E030E097C123E030E094C177
S11319302BE030E091C123E030E08EC123E030E0C1
S11319408BC12AE030E088C121E030E085C121E08C
S113195030E082C122E030E07FC12FE030E07CC182
S113196022E030E079C123E030E076C122E030E0CB
S113197073C122E030E070C121E030E06DC123E0AA
S113198030E06AC121E030E067C127E030E064C1A3
S113199023E030E061C121E030E05EC122E030E0CC
S11319A05BC123E030E058C122E030E055C121E1C1
S11319B030E052C120E130E04FC121E030E04CC1C1
S11319C027E030E049C127E030E046C122E130E0C1
S11319D043C12BE030E040C121E030E03DC123E0D1
S11319E030E03AC122E030E037C121E030E034C1D8
S11319F029E030E031C12DE030E02EC12CE030E0B0
S1131A002BC12DE030E028C129E030E025C12DE0D4
S1131A1030E022C12CE030E01FC12DE030E01CC1D9
S1131A202CE030E019C12DE030E016C12CE030E0AC
S1131A3013C129E030E010C12CE030E00DC129E0F1
S1131A4030E00AC121E030E007C12CE030E004C1FD
S1131A5022E030E001C123E030E0FEC02DE030E0C0
S1131A60FBC021E030E0F8C029E030E0F5C029E017
S1131A7030E0F2C021E030E0EFC021E030E0ECC023
S1131A8021E030E0E9C021E030E0E6C021E030E0D0
S1131A90E3C021E030E0E0C021E030E0DDC021E03F
S1131AA030E0DAC021E030E0D7C021E030E0D4C03B
S1131AB021E030E0D1C021E030E0CEC021E030E0D0
S1131AC0CBC027E030E0C8C021E030E0C5C021E051
S1131AD030E0C2C021E030E0BFC021E030E0BCC053
S1131AE021E030E0B9C021E030E0B6C021E030E0D0
S1131AF0B3C021E030E0B0C021E030E0ADC021E06F
S1131B0030E0AAC021E030E0A7C021E030E0A4C06A
S1131B1021E030E0A1C021E030E09EC021E030E0CF
S1131B209BC021E030E098C021E030E095C021E086
S1131B3030E092C021E030E08FC021E030E08CC082
S1131B4021E030E089C021E030E086C021E030E0CF
S1131B5083C021E030E080C021E030E07DC021E09E
S1131B6030E07AC021E030E077C021E030E074C09A
S1131B7021E030E071C021E030E06EC021E030E0CF
S1131B806BC021E030E068C021E030E065C021E0B6
S1131B9030E062C021E030E05FC021E030E05CC0B2
S1131BA021E030E059C021E030E056C021E030E0CF
S1131BB053C021E030E050C021E030E04DC021E0CE
S1131BC030E04AC021E030E047C021E030E044C0CA
S1131BD021E030E041C021E030E03EC021E030E0CF
S1131BE03BC021E030E038C028E030E035C028E0D8
S1131BF030E032C021E030E02FC021E030E02CC0E2
S1131C0026E030E029C025E030E026C025E030E0C1
S1131C1023C025E030E020C026E030E01DC025E0F0
S1131C2030E01AC026E030E017C027E030E014C0EE
S1131C3027E030E011C022E030E00EC026E030E0C2
S1131C400BC025E030E008C023E030E005C020E010
S1131C5030E002C020E030E0822F932F08954D3110
S1131C60510571F277CD4C31510569F26BCD4D318F
S1131C70510561F26FCD4E31510559F26BCD4F31A3
S1131C80510551F267CD4F31510549F263CD4132CF
S1131C90510541F25FCD4132510539F25BCD4C31F2
S1131CA0510531F24FCD4332510529F253CD433220
S1131CB0510521F24FCD4432510519F24BCD443236
S1131CC0510511F247CD80917102873908F4EBC9AF
S1131CD0BECF80917102873908F4E5C9BBCF663263
S1131CE0710509F426CD36CDE5E7F2E025EC32E0C6
S1131CF089E19CEF81939193E217F307D9F7E8E127
S1131D00F3E020E433E089E19CEF81939193E217BF
S1131D10F307D9F70895209175023091760229319D
S1131D203C4F51F0E7E7F2E021E030E0419151917E
S1131D3049315C4F59F402C020E030E0220F331FD8
S1131D40F901EB58FD4F9183808308952F5F3F4F36
S1131D502832310559F70895209118033091190359
S1131D6029313C4F51F0EAE1F3E021E030E04191C8
S1131D70519149315C4F59F402C020E030E0220F08
S1131D80331FF901E85EFC4F9183808308952F5F30
S1131D903F4F2431310559F70895CF93DF93DB0189
S1131DA0FC0120E030E04FEF5FE78D91811108C026
S1131DB080819181481759071CF0D22FC32FAC01A1
S1131DC02F5F3F4F32962832310579F78D2F9C2FA4
S1131DD0DF91CF910895CF93DF93FB01EE0FFF1FA7
S1131DE0E80FF91F208131812F3F4FEF340789F02D
S1131DF0EB01B901F0DFDF93CF9381E292E09F938F
S1131E008F930E94831BCE0186DF0F900F900F905B
S1131E100F90DF91CF9108950F931F93CF93DF938A
S1131E20EA013F932F93F801EE0FFF1FE80FF91F0C
S1131E3081818F9380818F931F930F933F932F936F
S1131E4080E192E09F938F930E94831BB801CE019F
S1131E50C2DF8DB79EB70A960FB6F8949EBF0FBE29
S1131E608DBFDF91CF911F910F9108952F923F92D3
S1131E704F925F926F927F928F929F92AF92BF9296
S1131E80CF92DF92EF92FF920F931F93CF93DF9342
S1131E90CDB7DEB7CC5CD1090FB6F894DEBF0FBE68
S1131EA0CDBF4C011B01C753DF4F59834883C95C25
S1131EB0D0402E0121E5420E511C9201D201FE01B7
S1131EC031968FEF9FE7819391931D92E217F30769
S1131ED0D1F7C101880F991FE9E7F0E0EC0FFD1F6E
S1131EE0E80FF91F2FEF3FEF31832083FE01E80F46
S1131EF0F91F128211820F2EF7E2AF2EB12CF02DB2
S1131F00772473940F2EF0E56F2EF02D01E510E089
S1131F100C0F1D1F085D1F4FBE016F5A7F4FCE016E
S1131F2001963BDFE1E5F0E0EC0FFD1FE80FF91F40
S1131F307082689ED001699EB00D1124BD01680DA8
S1131F40791DC553DF4F79836883CB5CD040AE01E4
S1131F5047585F4F9E012F5F3F4FF2017C01EE0C0B
S1131F60FF1CE20EF31E619161111CC0C553DF4FCB
S1131F70A881B981CB5CD0406D917C9161157105CC
S1131F8089F0D701CD90DC906C0D7D1DD901CD90E9
S1131F90DC906C157D0534F4DA018D939C93D901A2
S1131FA06D937C93C553DF4F68817981CB5CD040BE
S1131FB06E5F7F4FC553DF4F79836883CB5CD0401E
S1131FC02E5F3F4F4E5F5F4FE017F10761F671E000
S1131FD0A71AB10809F0A0CFC753DF4F08811981B0
S1131FE0C95CD0409101AE0147585F4F68E270E090
S1131FF0CE01019611DFC453DF4F0FB6F894DEBF54
S11320000FBECDBFDF91CF911F910F91FF90EF9045
S1132010DF90CF90BF90AF909F908F907F906F9004
S11320205F904F903F902F9008954F925F926F92E0
S11320307F928F929F92AF92BF92CF92DF92EF9254
S1132040FF920F931F93CF93DF93CDB7DEB7C058A2
S1132050DC400FB6F894DEBF0FBECDBF3C012B01B0
S113206080916A0290916B02181619062CF48091E3
S1132070D7029091D8024FDE80916A0290916B0250
S1132080019690936B0280936A02C30144DE9E0121
S11320902F5F3F4F490180E89CE0F9019C011192B8
S11320A021503040E1F72EE130E03C832B83E9E31B
S11320B0F0E0FC8FEB8F8DE090E09AAF89AF6396F0
S11320C03FAF2EAF639766E170E067967FAF6EAF68
S11320D0679700E310E0AB961FAF0EAFAB97C55701
S11320E0DF4F99838883CB58D040CD55DF4F798318
S11320F06883C35AD04044E150E0C955DF4F598347
S11321004883C75AD040C352DF4F99838883CD5D3B
S1132110D040CB50DF4F59834883C55FD040C75070
S1132120DF4F59834883C95FD040C95BDE4F598371
S11321304883C754D140C55BDE4F79836883CB5451
S1132140D140C158DE4F99838883CF57D140C756B9
S1132150DE4F79836883C959D140C356DE4F398332
S11321602883CD59D140CF55DE4F19830883C15AF6
S1132170D140CF52DE4F99838883C15DD140C55190
S1132180DE4F39832883CB5ED140C151DE4FF983C2
S1132190E883CF5ED140CD5DDD4F99838883C35200
S11321A0D240C35CDD4FF983E883CD53D24061E272
S11321B070E0CF5BDD4F79836883C154D2400F2E2A
S11321C0F8E2CF2ED12CF02DC75ADD4FD982C88228
S11321D0C955D240C557DD4F19830883CB58D24027
S11321E0C157DD4F79836883CF58D240AAE1B0E06C
S11321F0CD56DD4FB983A883C359D240CF51DD4FAB
S1132200B983A883C15ED2400F2EFDE1EF2EF12CDD
S1132210F02DCB51DD4FF982E882C55ED24021E139
S113222030E0CB50DD4F39832883C55FD240CD5C8D
S1132230DC4FF982E882C353D340C95CDC4FF98296
S1132240E882C753D3400F2EF9E1AF2EB12CF02D05
S1132250C95ADC4FB982A882C755D340CB57DC4F4B
S1132260F982E882C558D340C757DC4FB983A883A5
S1132270C958D340CF56DC4F39832883C159D34042
S1132280CD53DC4F19830883C35CD340C952DC4F60
S1132290B983A883C75DD340C552DC4F7983688373
S11322A0CB5DD340CF5EDB4FF983E883C151D4408B
S11322B0C75DDB4F79836883C952D44067E170E01E
S11322C0C158DB4F79836883CF57D440C357DB4F62
S11322D039832883CD58D440C353DB4F7983688333
S11322E0CD5CD440CF52DB4F59834883C15DD44089
S11322F0C950DB4F99838883C75FD440C95EDA4FE6
S113230039832883C751D540C15EDA4F5983488346
S1132310CF51D540E2E3F0E0CD5DDA4FF983E883B5
S1132320C352D540CF58DA4FF983E883C157D5401B
S1132330CB58DA4FF983E883C557D54065E270E09E
S1132340C158DA4F79836883CF57D540CD54DA4FDB
S113235039832883C35BD540CD53DA4FF983E883AF
S1132360C35CD540C953DA4F59834883C75CD54011
S1132370CB5ED94F59834883C551D640C75CD94FEA
S113238099838883C953D640C15BD94FD982C88207
S1132390CF54D640C559D94F39832883CB56D6401C
S11323A0C754D94F39832883C95BD640C552D94F06
S11323B099838883CB5DD640C350D94F3983288312
S11323C0CD5FD640CB5DD84F99838883C552D74023
S11323D0CD5AD84F79836883C355D740CF59D84F46
S11323E079836883C156D740C155D84F79836883B0
S11323F0CF5AD7402CE330E0CD54D84F39832883CB
S1132400C35BD740CB54D84F39832883C55BD740AF
S1132410CF5FD74F39832883C150D840C35ED74F8D
S113242099838883CD51D840CF5AD74F3983288395
S1132430C155D840C159D74F99838883CF56D840C6
S1132440CB57D74FB982A882C558D840CF53D74F5E
S113245099838883C15CD840CD5ED64F99838883A5
S1132460C351D940CB59D64F99838883C556D94097
S1132470C754D64F99838883C95BD940C55FD54F6C
S113248099838883CB50DA40C35AD54F9983888384
S1132490CD55DA40C353D54F99838883CD5CDA4058
S11324A0C15FD44F99838883CF50DB40C959D44F3F
S11324B099838883C756DB40C554D44F9983888356
S11324C0CB5BDB40CD5ED34F99838883C351DC4023
S11324D0CB59D34F99838883C556DC40C75ED94F07
S11324E019821882C951D640C959D94F1982188204
S11324F0C756D640C95DDC4F19821882C752D340F3
S1132500CB5FDE4F19821882C550D140C35DDB4FCB
S113251019821882CD52D440C558DB4F19821882D3
S1132520CB57D440A201B301C401A0DCC058D34F9F
S11325300FB6F894DEBF0FBECDBFDF91CF911F91D0
S11325400F91FF90EF90DF90CF90BF90AF909F904E
S11325508F907F906F905F904F9008956F927F92CD
S11325608F929F92AF92BF92CF92DF92EF92FF929F
S11325700F931F93CF93DF9380916E0290916F021C
S1132580019709F44BC00F2EF5E78F2EF2E09F2E32
S1132590F02DEE24E394F12CC0E0D0E00F2EF5E210
S11325A06F2EF2E07F2EF02D670181E0C81AD1086A
S11325B08401F40142815381619171914F01CC0FE7
S11325C0DD1FCB58DD4F888199810E948D045C0109
S11325D0F80183818F9382818F9381818F9380818E
S11325E08F9389818F9388818F937F926F920E94BA
S11325F0831BFFEFEF1AFF0AC501AEDBE6018DB7BF
S11326009EB708960FB6F8949EBF0FBE8DBF8091FB
S11326106E0290916F028E159F0531F6DF91CF9176
S11326201F910F91FF90EF90DF90CF90BF90AF90EC
S11326309F908F907F906F90089510926D021092EA
S11326406C02809118039091190389319C4FF1F425
S11326500CC0582F492F21913191019629313C4FBB
S1132660C1F750936C0240936D0280916D028F9379
S113267080916C028F9382E392E09F938F930E94E8
S1132680831B0F900F900F900F900895EAE1F3E0F1
S113269081E090E0DECF10926F0210926E02809182
S11326A075029091760289319C4F21F512C02191D7
S11326B0319129313C4F29F490936F0280936E023B
S11326C008C00196E417F50791F790936F02809381
S11326D06E0280916F028F9380916E028F9382E4D9
S11326E092E09F938F930E94831B0F900F900F9003
S11326F00F900895E7E7F2E045EC52E081E090E0C6
S1132700D6CF8F929F92AF92BF92CF92DF92EF92E9
S1132710FF920F931F93CF93DF93EC014B01E4DA05
S1132720EBECF2E0A284B384C084D184E680F78029
S1132730048115812281338140815181B401CE010C
S113274074DCA9DF0BDF79DF109269021092680252
S113275080916C0290916D02181619060CF078C6DF
S113276080E090E00F2EF3E5CF2EF2E0DF2EF02D87
S11327700F2EF8E2EF2EFF24F394F02DBB24BA942D
S1132780CAE2D1E00F2EF6E9AF2EF02D880F991F83
S1132790FC01ED58FD4F20813181032E000C440BC8
S11327A0550B02E010E064E082E00E940902E0912F
S11327B06802F0916902EE0FFF1FEB58FD4F208174
S11327C03181032E000C440B550B68E082E00E941B
S11327D00902E0916802F0916902EE0FFF1FE958C7
S11327E0FD4F20813181032E000C440B550B6CE00E
S11327F082E00E940902E0916802F0916902EE0F02
S1132800FF1FEA5EFC4F20813181032E000C440B34
S1132810550B64E081E00E940902E0916802F091A6
S11328206902EE0FFF1FE85EFC4F20813181032E09
S1132830000C440B550B68E081E00E940902E09112
S11328406802F0916902EE0FFF1FE65EFC4F2081E3
S11328503181032E000C440B550B6CE081E00E9487
S11328600902E0916802F0916902EE0FFF1FE85E31
S1132870FC4F0190F081E02D3197E231F10508F031
S1132880F8C48827EE58FF4F8F4F1CC70E94CD0213
S11328900E94E60217C062E370E080E090E00E94CC
S11328A0A60004C00E94CD020E94E602809172023A
S11328B0873920F4809170028739A0F380917102E6
S11328C0873980F380917202873908F0F5C48091CA
S11328D07002873908F0F6C4DECF0E94800462E3F8
S11328E070E080E090E00E94A6001F9282E08F9347
S11328F0DF92CF9208D70F900F900F900F90CAC419
S1132900F701B082B8820E94630268E171E080E05E
S113291090E00E94A6000E94690264EF71E080E0EA
S113292090E00E94A60081E00E9479028639D8F3E3
S11329300E94CD0217C062E370E080E090E00E9444
S1132940A60004C00E94CD020E94E6028091720299
S1132950873920F4809170028739A0F38091710245
S1132960873980F380917202873908F0B1C480916D
S11329707002873908F0B2C4DECF0E94800462E39B
S113298070E080E090E00E94A60084C4F701B08269
S1132990B8820E94630268E171E080E090E00E94E6
S11329A0A6000E94710264EF71E080E090E00E9452
S11329B0A60082E00E9479028639D8F30E94CD02F3
S11329C017C062E370E080E090E00E94A60004C0BB
S11329D00E94CD020E94E60280917202873920F49F
S11329E0809170028739A0F380917102873980F356
S11329F080917202873908F077C480917002873918
S1132A0008F078C4DECF0E94800462E370E080E0C6
S1132A1090E00E94A6003EC4F701B082B8820E94F2
S1132A20710268EE73E080E090E00E94A60082E00C
S1132A300E9479028639D8F30E9480041F9282E0B2
S1132A408F93DF92CF925FD60F900F900F900F90DD
S1132A5021C4F701B082B8820E9463026CE771E07E
S1132A6080E090E00E94A6000E94690260E971E0A3
S1132A7080E090E00E94A60082E00E9479028639FC
S1132A80D8F30E94660268EE73E080E090E00E9452
S1132A90A6000E948004FEC3F701B082B8820E949F
S1132AA0630268E171E080E090E00E94A6000E9469
S1132AB071026EE571E080E090E00E94A60082E081
S1132AC00E9479028639D8F30E94660268EE73E0A8
S1132AD080E090E00E94A6000E948004DBC3F7011E
S1132AE0B082B8820E9463026CE271E080E090E000
S1132AF00E94A6000E9466020E948004CBC30E942A
S1132B007102F701B082B88268E572E080E090E07B
S1132B100E94A60082E00E9479028639D8F30E94BE
S1132B20660264E670E080E090E00E94A6000E94E5
S1132B3080040E948004AEC3F701B082B8820E9470
S1132B40710264EA76E080E090E00E94A60082E0F0
S1132B500E9479028639D8F30E94CD020E94E602CF
S1132B6017C062E370E080E090E00E94A60004C019
S1132B700E94CD020E94E60280917202873920F4FD
S1132B80809170028739A0F380917102873980F3B4
S1132B9080917202873908F0B3C38091700287393B
S1132BA008F0B4C3DECF0E94800462E370E080E0EA
S1132BB090E00E94A6006EC30E94CD020E94B3035F
S1132BC017C062E370E080E090E00E94A60004C0B9
S1132BD00E94CD020E94E60280917202873920F49D
S1132BE0809170028739A0F380917102873980F354
S1132BF080917202873908F08FC3809170028739FF
S1132C0008F090C3DECF6EE170E080E090E00E94B7
S1132C10A600F701A082A8820E94630268EC70E01B
S1132C2080E090E00E94A6000E94CD0217C062E3FB
S1132C3070E080E090E00E94A60004C00E94CD02F3
S1132C400E94E60280917202873920F4809170021A
S1132C508739A0F380917102873980F380917202E1
S1132C60873908F065C380917002873908F066C31C
S1132C70DECF0E9480046EE170E080E090E00E946C
S1132C80A60008C3F701B082B8820E94630268E11B
S1132C9071E080E090E00E94A6000E94690264EF67
S1132CA071E080E090E00E94A60081E00E94790239
S1132CB08639D8F30E94CD0217C062E370E080E049
S1132CC090E00E94A60004C00E94CD020E94E60289
S1132CD080917202873920F4809170028739A0F3C1
S1132CE080917102873980F380917202873908F0EC
S1132CF02BC380917002873908F02CC3DECF0E9469
S1132D0080046EE170E080E090E00E94A600F7018C
S1132D10A082A8820E94630264E670E080E090E0F2
S1132D200E94A6000E94660268E873E180E090E0D9
S1132D300E94A600AFC20E94710264EF71E080E0BD
S1132D4090E00E94A60082E00E9479028639D8F3BE
S1132D500E94CD0217C062E370E080E090E00E9420
S1132D60A60004C00E94CD020E94E6028091720275
S1132D70873920F4809170028739A0F38091710221
S1132D80873980F380917202873908F0E9C2809113
S1132D907002873908F0EAC2DECF0E94800462E341
S1132DA070E080E090E00E94A60074C20E94690274
S1132DB064EF71E080E090E00E94A60082E00E944F
S1132DC079028639D8F30E94CD0217C062E370E01D
S1132DD080E090E00E94A60004C00E94CD020E9400
S1132DE0E60280917202873920F48091700287395B
S1132DF0A0F380917102873980F380917202873940
S1132E0008F0BAC280917002873908F0BBC2DECFE5
S1132E100E94800462E370E080E090E00E94A600DB
S1132E2039C2F701A082A8820E9463026CEB72E0AF
S1132E3080E090E00E94A6000E94690264E670E0CF
S1132E4080E090E00E94A60082E00E947902863928
S1132E50D8F30E94660262E370E080E090E00E9492
S1132E60A6000E94CD0217C062E370E080E090E00B
S1132E700E94A60004C00E94CD020E94E602809136
S1132E807202873920F4809170028739A0F380910F
S1132E907102873980F380917202873908F078C211
S1132EA080917002873908F079C2DECF0E948004D5
S1132EB00E9466026CE271E080E090E00E94A6004D
S1132EC0E9C1F701B082B8820E94630268E171E04F
S1132ED080E090E00E94A6000E94710264EF71E01D
S1132EE080E090E00E94A60083E00E947902863987
S1132EF0D8F30E94CD0217C062E370E080E090E056
S1132F000E94A60004C00E94CD020E94E6028091A5
S1132F107202873920F4809170028739A0F380917E
S1132F207102873980F380917202873908F042C2B6
S1132F3080917002873908F037C2DECF0E94800486
S1132F406EE170E080E090E00E94A600F701A082AC
S1132F50A8820E94630264E670E080E090E00E9430
S1132F60A6000E94660268E873E180E090E00E9497
S1132F70A60090C1F701B082B8820E94630268E1A2
S1132F8071E080E090E00E94A6000E94CD0217C08C
S1132F9062E370E080E090E00E94A60004C00E941A
S1132FA0CD020E94E60280917202873920F480915A
S1132FB070028739A0F380917102873980F3809180
S1132FC07202873908F0FCC180917002873908F0D9
S1132FD0FDC1DECF0E9480046EE170E080E090E0ED
S1132FE00E94A6000E946302F701A082A8820E94A8
S1132FF0CD0217C062E370E080E090E00E94A6007A
S113300004C00E94CD020E94E602809172028739B8
S113301020F4809170028739A0F38091710287397E
S113302080F380917202873908F0D6C180917002D2
S1133030873908F0D7C1DECF0E9480046EE170E0CA
S113304080E090E00E94A600F701B082B8820E945E
S1133050630268E171E080E090E00E94A6000E94B3
S1133060710283E00E9479028639D8F30E94CD026E
S113307017C062E370E080E090E00E94A60004C004
S11330800E94CD020E94E60280917202873920F4E8
S1133090809170028739A0F380917102873980F39F
S11330A080917202873908F0A3C180917002873938
S11330B008F0A4C1DECF0E9480046EE170E080E0DD
S11330C090E00E94A600E6C0F701A082A8820E94B8
S11330D0630260E971E080E090E00E94A6000E9433
S11330E069026CE271E080E090E00E94A60081E059
S11330F00E9479028639D8F30E94CD0217C062E398
S113310070E080E090E00E94A60004C00E94CD021E
S11331100E94E60280917202873920F48091700245
S11331208739A0F380917102873980F3809172020C
S1133130873908F06FC180917002873908F064C143
S1133140DECF0E9480046EE170E080E090E00E9497
S1133150A600A0C0F701B082B8820E94630268E1B1
S113316071E080E090E00E94A6000E94710264EF8A
S113317071E080E090E00E94A60083E00E94790262
S11331808639D8F30E94CD0217C062E370E080E074
S113319090E00E94A60004C00E94CD020E94E602B4
S11331A080917202873920F4809170028739A0F3EC
S11331B080917102873980F380917202873908F017
S11331C02FC180917002873908F030C1DECF6EE1E3
S11331D070E080E090E00E94A6000E946302F70184
S11331E0A082A88268EC70E080E090E00E94A600D3
S11331F00E94CD0217C062E370E080E090E00E947C
S1133200A60004C00E94CD020E94E60280917202D0
S1133210873920F4809170028739A0F3809171027C
S1133220873980F380917202873908F00BC180914D
S11332307002873908F000C1DECF0E9480046EE17D
S113324070E080E090E00E94A600F701A082A882CE
S11332500E94630264E670E080E090E00E94A600B1
S11332600E94660268E873E180E090E00E94A60094
S113327011C061E081E00E94940187E592E00E9420
S1133280AF011F921F92DF92CF923DD20F900F9009
S11332900F900F908091680290916902019690932B
S11332A069028093680220916C0230916D0282174A
S11332B093070CF46BCACCC080917102873908F46F
S11332C0EACA0BCB80917102873908F4E4CA05CBB2
S11332D080917102873908F42ECB4FCB8091710213
S11332E0873908F428CB49CB80917102873908F4D7
S11332F068CB89CB80917102873908F462CB83CB88
S113330080917102873908F42CCC4DCC80917102E4
S1133310873908F426CC47CC80917102873908F4A8
S113332050CC71CC80917102873908F44ACC6BCCB3
S113333080917102873908F47ACC9BCC8091710218
S1133340873908F474CC95CC80917102873908F4DC
S1133350B4CCD5CC80917102873908F4AECCCFCCF3
S113336080917102873908F4F6CC17CD80917102EF
S1133370873908F4F0CC11CD80917102873908F4B3
S113338025CD46CD80917102873908F41FCD40CDFB
S113339080917102873908F467CD88CD80917102DC
S11333A0873908F461CD82CD80917102873908F4A0
S11333B0A3CDC4CD80917102873908F49DCDBECDD3
S11333C080917102873908F4E3CD04CE80917102B3
S11333D0873908F4DDCDFECD80917102873908F478
S11333E009CE2ACE80917102873908F403CE24CE07
S11333F080917102873908F43CCE5DCE80917102D0
S1133400873908F436CE57CE80917102873908F493
S113341076CE97CE80917102873908F470CE91CE22
S113342080917102873908F4B0CED1CE80917102B7
S1133430873908F4AACECBCE80917102873908F47B
S1133440DACEFBCE80917102873908F4D4CEF5CE62
S113345080E090E0DF91CF911F910F91FF90EF906A
S1133460DF90CF90BF90AF909F908F90089510926F
S11334706B0210926A02709343036093420341C942
S11334800895CF92DF92EF92FF920F931F93CF9301
S1133490DF930F2EFBE9CF2ED12CF02DF6011082F5
S11334A00F2EFAE9EF2EF12CF02D83E4F70180833F
S11334B0FFEF28E03DE3F15020403040E1F700C049
S11334C000000E941A010DE910E0F8011082CCE915
S11334D0D0E083E58883FFEF28E03DE3F15020400E
S11334E03040E1F700C000000E942101F601108283
S11334F083E2F7018083FFEF28E03DE3F1502040B1
S11335003040E1F700C00000F80110828883FFEF2B
S113351028E03DE3F15020403040E1F700C00000D6
S11335200E942101DF91CF911F910F91FF90EF90A5
S1133530DF90CF900895CF92DF92EF92FF920F9396
S11335401F93CF93DF930DE910E0F80110820F2E43
S1133550FCE9CF2ED12CF02D83E5F6018083FFEF1B
S113356028E08DE3F15020408040E1F700C00000E6
S11335700E9421010F2EFBE9EF2EF12CF02DF70113
S11335801082CAE9D0E083E48883FFEF28E08DE36A
S1133590F15020408040E1F700C000000E941A0171
S11335A0F801108213E2F6011083FFEF28E08DE3A7
S11335B0F15020408040E1F700C000000E9421014A
S11335C0F70110821883FFEF28E08DE3F1502040CB
S11335D08040E1F700C000000E941A01DF91CF9102
S11335E01F910F91FF90EF90DF90CF9008950E946C
S11335F0C6020E94890180E185B964E270E08EE12F
S113360090E035DF98DF6FE170E084E290E02FDF37
S113361038DF65E270E08FE190E029DF8CDF60E263
S113362070E085E290E023DF2CDF62E270E080E26C
S113363090E01DDF80DF61E270E082E290E017DF5E
S113364020DF63E270E081E290E011DF74DF6BE180
S113365070E083E290E00BDF0E94660280E090E07D
S11336600895DB018F939F9335D0BF91AF91A29FB3
S1133670800D911DA39F900DB29F900D112408956C
S1133680A1E21A2EAA1BBB1BFD010DC0AA1FBB1F62
S1133690EE1FFF1FA217B307E407F50720F0A21BD4
S11336A0B30BE40BF50B661F771F881F991F1A9441
S11336B069F760957095809590959B01AC01BD016B
S11336C0CF010895EE0FFF1F881F8BBF0790F6915F
S11336D0E02D199409D0A59F900DB49F900DA49F3F
S11336E0800D911D11240895A29FB001B39FC001C4
S11336F0A39F700D811D1124911DB29F700D811D1A
S11337001124911D0895CF93DF93CDB7DEB7AE0199
S11337104A5F5F4FFA0161917191AF0180914D034E
S113372090914E0303D0DF91CF9108952F923F9251
S11337304F925F926F927F928F929F92AF92BF92BD
S1133740CF92DF92EF92FF920F931F93CF93DF9369
S1133750CDB7DEB72B970FB6F894DEBF0FBECDBF43
S11337606C017B018A01FC0117821682838181FF2F
S1133770BFC1CE0101963C01F6019381F70193FD8F
S1133780859193FF81917F01882309F4ADC185322E
S113379039F493FD859193FF81917F01853221F462
S11337A0B60190E0D6D1E8CF912C212C312CFFE149
S11337B0F315D8F08B3279F038F4803279F0833213
S11337C0A1F4232D20611DC08D3261F0803369F492
S11337D0232D216016C0832D8260382EE32DE460F2
S11337E03E2E2AC0F32DF8601DC037FC2DC020EDFD
S11337F0280F2A3040F08E32B9F436FC75C1232DDF
S11338002064322E19C036FE06C08AE0989E200D30
S11338101124922E11C0EAE02E9E200D1124222E96
S1133820F32DF0623F2E08C08C3621F4832D80687E
S1133830382E02C0883641F4F70193FD859193FF39
S113384081917F018111B3CF982F9F7D955493303F
S113385028F40C5F1F4F9FE399830DC0833631F02A
S1133860833771F0833509F055C020C0F801808199
S113387089830E5F1F4F88248394912C530112C0B7
S11338802801F2E04F0E511CF801A080B18036FEF1
S113389003C0692D70E002C06FEF7FEFC5014ED108
S11338A04C018201F32DFF773F2E15C0280122E041
S11338B0420E511CF801A080B18036FE03C0692D70
S11338C070E002C06FEF7FEFC5012DD14C01F32DE5
S11338D0F0683F2E820133FC19C0822D90E08816D7
S11338E09906A0F4B60180E290E033D12A94F5CF92
S11338F0F50137FC859137FE81915F01B60190E0B7
S113390028D121102A9421E0821A9108811491046B
S113391079F7E1C0843611F0893639F5F80137FEBC
S113392007C060817181828193810C5F1F4F08C041
S113393060817181072E000C880B990B0E5F1F4F5D
S1133940F32DFF763F2E97FF09C0909580957095D3
S113395061957F4F8F4F9F4FF0683F2E2AE030E0F4
S1133960A30133D1882E861844C0853731F4232D22
S11339702F7EB22E2AE030E025C0932D997FB92EF8
S11339808F36C1F018F4883579F0AEC0803719F05D
S1133990883721F0A9C0E92FE061BE2EB4FE0DC026
S11339A0FB2DF460BF2E09C034FE0AC0292F266007
S11339B0B22E06C028E030E005C020E130E002C0AD
S11339C020E132E0F801B7FE07C060817181828195
S11339D093810C5F1F4F06C06081718180E090E08D
S11339E00E5F1F4FA301F1D0882E8618FB2DFF77A1
S11339F03F2E36FE0DC0232D2E7FA22E891458F49F
S1133A0034FE0BC032FC09C0832D8E7EA82E05C067
S1133A10B82CA32C03C0B82C01C0B92CA4FE0FC031
S1133A20FE01E80DF11D8081803321F49A2D997EE9
S1133A30A92E09C0A2FE06C0B394B39404C08A2D73
S1133A40867809F0B394A3FC10C0A0FE06C0B2149B
S1133A5080F4280C922C9B180DC0B21458F4B601B3
S1133A6080E290E076D0B394F8CFB21418F42B1817
S1133A7002C0982C212CA4FE0FC0B60180E390E074
S1133A8068D0A2FE16C0A1FC03C088E790E002C083
S1133A9088E590E0B6010CC08A2D867851F0A1FE2D
S1133AA002C08BE201C080E2A7FC8DE2B60190E087
S1133AB050D0891430F4B60180E390E04AD09A944F
S1133AC0F8CF8A94F301E80DF11D8081B60190E0EE
S1133AD040D08110F6CF222009F44ECEB60180E208
S1133AE090E037D02A94F7CFF6018681978102C0FF
S1133AF08FEF9FEF2B960FB6F894DEBF0FBECDBFAE
S1133B00DF91CF911F910F91FF90EF90DF90CF90B5
S1133B10BF90AF909F908F907F906F905F904F90E9
S1133B203F902F900895FC01059061507040011062
S1133B30D8F7809590958E0F9F1F0895FC016150D2
S1133B40704001900110D8F7809590958E0F9F1FBB
S1133B5008950F931F93CF93DF93FB01238121FDDE
S1133B6003C08FEF9FEF2CC022FF16C04681578100
S1133B70248135814217530744F4A081B1819D010A
S1133B802F5F3F4F318320838C93268137812F5FB2
S1133B903F4F3783268314C08B01EC01FB01008463
S1133BA0F185E02D1995892BE1F6D80116968D91B2
S1133BB09C911797019617969C938E931697CE0116
S1133BC0DF91CF911F910F910895FA01AA27283010
S1133BD051F1203181F1E8946F936E7F6E5F7F4FD6
S1133BE08F4F9F4FAF4FB1E03ED0B4E03CD0670F52
S1133BF0781F891F9A1FA11D680F791F8A1F911DA5
S1133C00A11D6A0F711D811D911DA11D20D009F4F4
S1133C1068943F912AE0269F11243019305D319336
S1133C20DEF6CF010895462F4770405D4193B3E01F
S1133C300FD0C9F7F6CF462F4F70405D4A3318F0C6
S1133C40495D31FD4052419302D0A9F7EACFB4E077
S1133C50A6959795879577956795BA95C9F700972F
S1133C606105710508959B01AC010A2E06945795D0
S1133C70479537952795BA95C9F7620F731F841F27
S10D3C80951FA01D0895F894FFCFCE
S1133C8A4500460020522000204720002042200000
S1133C9A0A2564202D3E202564200909202564096B
S1133CAA09256420000A0925642C0925642C0925A0
S1133CBA64000A73697A65206F6620626F743D2511
S1133CCA64000A73697A65206F6620706174683DBE
S1133CDA25640025640900627265616B006F6231B4
S10B3CEA5F64657465637400F6
S9030000FC
