S01A00004E535F333934345F7461736B5F345F626F742E73726563ED
S113000083C00000D7C00000A0C000009EC0000054
S11300109CC000009AC0000098C0000096C0000078
S113002094C0000092C0000090C000008EC0000088
S11300308CC000008AC0000088C0000086C0000098
S113004084C0000082C0000080C000007EC00000A8
S11300507CC000007AC0000078C0000076C00000B8
S113006074C0000072C0000070C000006EC00000C8
S11300706CC000006AC0000068C0000066C00000D8
S113008064C0000062C0000060C000005EC00000E8
S11300905CC000005AC0000058C0000056C00000F8
S11300A054C0000052C0000050C000004EC0000008
S11300B04CC000004AC0000048C0000046C0000018
S11300C044C0000042C0000040C000003EC0000028
S11300D03CC000003AC0000038C0000036C0000038
S11300E034C000007C16B516F9163D1759177A1757
S11300F09B17A917C21700186418BB18F4182D19F8
S11301007B19D219761ABA1A11241FBECFEFD1E285
S1130110DEBFCDBF00E00CBF12E0A0E0B2E0ECED2A
S1130120FAE400E00BBF02C007900D92AA36B107B3
S1130130D9F723E0AAE6B2E001C01D92A735B207C1
S1130140E1F70E94F8210C946C255ACF0F931F936A
S11301508B019C01992384F415C00196813DE7E04D
S11301609E07D9F74F5F5F4F6F4F7F4F04171507F7
S11301702607370724F406C040E050E0BA0180E0C7
S113018090E0EBCF1F910F9108958FEF80930101C1
S11301908093020108958EEF8AB981E08BB98FEFC5
S11301A084B90895F89482E08093690081E08DBB5E
S11301B0789408951F920F920FB60F9211248F9383
S11301C09F938091790290917A02019690937A029A
S11301D0809379029F918F910F900FBE0F901F9083
S11301E018956C9A749A08956D9A759A0895E1E930
S11301F0F0E010828CEF8093950081E0809394006E
S113020093E0909399008FEF8093980090939B00D4
S113021080939A0090939D0080939C009093970004
S1130220809396008BEA80939000109292008CE069
S11302308083089583E080939B008FEF80939A00DE
S1130240089583E080939D008FEF80939C00089530
S113025087B1876F87B988B1807888B90895429843
S11302604098419A88B18F7088B987B18F7087B9E7
S113027088B188B9429A4298429A42984799FACFEB
S11302804298419887B1887087B987B1876F87B9D9
S113029080E0089542984098419898B19F7098B929
S11302A098B1282F207F922B98B9429A429898B1FE
S11302B09F7098B998B18295807F892B88B9429AAA
S11302C04298CDDF8111FDCF81EE94E00197F1F7E3
S11302D000C0000008954298409A419898B19F70D8
S11302E098B998B1282F207F922B98B9429A4298B6
S11302F098B19F7098B998B18295807F892B88B9FD
S1130300429A429889EF90E00197F1F700C000000B
S1130310089580E2BFDF88E2BDDF8CE0BBDF86E0CA
S1130320B9DF81E0B7CF0895823069F018F48130E5
S113033031F00895833059F0843069F008958FE7DF
S1130340860FA8CF08958FEB860FA4CF089583E975
S1130350860FA0CF089583ED860F9CCF0895CF9389
S1130360DF93EC018881882329F02196B4DF8991F9
S11303708111FCCFDF91CF91089580E88BCF089550
S1130380CF92DF92EF92FF926623B1F0C82ED12C68
S1130390E12CF12CEFEFE60FA1F0682F7D2D8E2DCF
S11303A09F2D262F372F482F592FC701B6010E94A2
S11303B01D22E150B1F709C061E070E080E090E0F7
S11303C004C0682F7D2D8E2D9F2DFF90EF90DF9020
S11303D0CF900895CF92DF92EF92FF926B017C0150
S11303E06FEF640F8AE0CCDF9B01AC01C701B6015B
S11303F00E942C22CA01B9012AE030E040E050E01A
S11304000E942C2280E3860FFF90EF90DF90CF9024
S11304100895CF92DF92EF92FF920F931F93690199
S11304207A01882311F0611102C0A7DF01C07CDFCB
S11304300B3011051CF088E54EDF09C0002339F0AC
S1130440402FC701B601C6DF46DF0150C9F71F912F
S11304500F91FF90EF90DF90CF90089510BA11BAEA
S113046010920701109208010895EAE7F0E0108263
S113047010927B0080E280937C0080E880BF86E855
S113048080830895E1E2F1E010828FEF80932501EB
S113049091E09093240110922901809328011092F5
S11304A02B0180932A0110922D0180932C0189EA5B
S11304B0809320018BE08083089592B1907F8F70A8
S11304C0982B92B9089586E0F8CF089580E0F5CF8F
S11304D0089588EC8093280180932A0185E0EDCF6C
S11304E0089588EC8093280180932A018AE0E5CF5F
S11304F00895883018F098E090937B008770806EA0
S113050080937C00EAE7F0E08081806480838081CE
S113051084FFFDCF80917900EAE7F0E0908190615B
S1130520908310927B000895CF93DF93D82FC62F2A
S1130530842FDFDF80930303482F50E06C2F70E09B
S113054023E030E08D2F90E064DFDF91CF910895B8
S1130550149A089514980895FBDF68E873E180E025
S113056090E0F4DDF7DF68E873E180E090E0EECD41
S1130570089581B18FEF81B982B1807F82B9EAE0B9
S1130580F1E0808188618083EBE0F1E08081886123
S11305908083089500DE06DE5BDE60DFEADFF5DDE2
S11305A020DE22CE0895F894F5DF1EDE1ADE5DDF2C
S11305B069DF1DDE7894089581E09BDF80937802E3
S11305C082E097DF8093770283E093DF8093760263
S11305D043E061E081E0A8DF42E065E081E0A4DF80
S11305E041E069E081E0A0CF0895EF92FF920F937C
S11305F01F93CF93DF93E0DF809178028739E8F18E
S1130600909177029639C8F5909176029639A8F5BB
S11306100F2EF8E2EF2EFF24F394F02D0AE211E0FE
S1130620C8EC80917802863950F49091770297391A
S113063030F090917602963908F087C09AC08739D5
S113064008F487C090917702973908F092C090918E
S11306507602973930F080917702873908F45EC0CA
S113066088C0873908F45AC080917702873908F422
S113067055C0973908F452C07CC0863908F047C089
S113068080917702873960F090917602963940F430
S113069093DF19DF8FEF8093280180932A0169C0CB
S11306A08639A8F580917602873988F10F2EF8E211
S11306B0EF2EFF24F394F02D1CEDCAE2D1E08091DB
S11306C07802863950F490917702973930F09091FE
S11306D07602963908F043C04CC0873908F443C009
S11306E090917702973908F044C090917602973937
S11306F028F0809177028739E8F03BC08739D0F041
S1130700809177028739B0F09739A0F032C0DBDEF0
S11307108FEF8093280180932A012BC04DDFD3DE15
S1130720F7011082F801C0836EE170E080E090E090
S11307300DDD77CF41DFC7DEF701108318826EE14C
S113074070E080E090E002DDBACF873908F47FCF13
S113075010C080917602873908F07DCFDFCF8739CA
S113076008F4C3CF06C080917602873908F0C1CF60
S1130770E1CF80E090E0DF91CF911F910F91FF9046
S1130780EF900895AEDE68E077E080E090E0DEDC94
S113079082E0AFDE8639E0F399CE0895EBE7F2E02C
S11307A02BEC32E089E19CEF81939193E217F307FC
S11307B0D9F7EEE1F3E026E433E089E19CEF81939D
S11307C09193E217F307D9F7089520917B023091B2
S11307D07C0229313C4F51F0EDE7F2E021E030E0BA
S11307E04191519149315C4F59F402C020E030E00D
S11307F0220F331FF901E558FD4F9183808308953B
S11308002F5F3F4F2832310559F7089520911E0379
S113081030911F0329313C4F51F0E0E2F3E021E035
S113082030E04191519149315C4F59F402C020E0CC
S113083030E0220F331FF901E25EFC4F9183808385
S113084008952F5F3F4F2431310559F70895CF9311
S1130850DF93DB01FC0120E030E04FEF5FE78D9197
S1130860811108C080819181481759071CF0D22F4B
S1130870C32FAC012F5F3F4F32962832310579F7F1
S11308808D2F9C2FDF91CF910895CF93DF93FB01A0
S1130890EE0FFF1FE80FF91F208131812F3F4FEF2B
S11308A0340789F0EB01B901F0DFDF93CF938FE2D6
S11308B092E09F938F930E949C22CE0186DF0F903B
S11308C00F900F900F90DF91CF9108950F931F9386
S11308D0CF93DF93EA013F932F93F801EE0FFF1FAD
S11308E0E80FF91F81818F9380818F931F930F935A
S11308F03F932F938EE192E09F938F930E949C22CB
S1130900B801CE01C2DF8DB79EB70A960FB6F89430
S11309109EBF0FBE8DBFDF91CF911F910F910895A0
S11309202F923F924F925F926F927F928F929F92FB
S1130930AF92BF92CF92DF92EF92FF920F931F93E9
S1130940CF93DF93CDB7DEB7CC5CD1090FB6F89463
S1130950DEBF0FBECDBF4C011B01C753DF4F598310
S11309604883C95CD0402E0121E5420E511C9201FE
S1130970D201FE0131968FEF9FE7819391931D92EF
S1130980E217F307D1F7C101880F991FE9E7F0E0F7
S1130990EC0FFD1FE80FF91F2FEF3FEF318320838A
S11309A0FE01E80FF91F128211820F2EF7E2AF2E1B
S11309B0B12CF02D772473940F2EF0E56F2EF02DCB
S11309C001E510E00C0F1D1F085D1F4FBE016F5A9B
S11309D07F4FCE0101963BDFE1E5F0E0EC0FFD1F18
S11309E0E80FF91F7082689ED001699EB00D112432
S11309F0BD01680D791DC553DF4F79836883CB5CD6
S1130A00D040AE0147585F4F9E012F5F3F4FF20128
S1130A107C01EE0CFF1CE20EF31E619161111CC0FF
S1130A20C553DF4FA881B981CB5CD0406D917C91D7
S1130A306115710589F0D701CD90DC906C0D7D1D99
S1130A40D901CD90DC906C157D0534F4DA018D93D9
S1130A509C93D9016D937C93C553DF4F6881798151
S1130A60CB5CD0406E5F7F4FC553DF4F7983688383
S1130A70CB5CD0402E5F3F4F4E5F5F4FE017F107D6
S1130A8061F671E0A71AB10809F0A0CFC753DF4F90
S1130A9008811981C95CD0409101AE0147585F4F6C
S1130AA068E270E0CE01019611DFC453DF4F0FB648
S1130AB0F894DEBF0FBECDBFDF91CF911F910F9190
S1130AC0FF90EF90DF90CF90BF90AF909F908F906A
S1130AD07F906F905F904F903F902F9008952F924A
S1130AE03F924F925F926F927F928F929F92AF92BA
S1130AF0BF92CF92DF92EF92FF920F931F93CF9307
S1130B00DF93CDB7DEB7CA58DC400FB6F894DEBF2A
S1130B100FBECDBFCF57D34F99838883C158DC40D4
S1130B20C757D34F79836883C958DC40CD57D34F17
S1130B3059834883C358DC40CB57D34F3983288328
S1130B40C558DC4028013701C957D34FD982C88220
S1130B50C758DC40150180917002909171021816FB
S1130B6019062CF48091DB029091DC022EDE809138
S1130B7070029091710201969093710280937002B9
S1130B80CF57D34F88819981C158DC401EDECE01F6
S1130B90019620E83CE0FC01A9011192415050402B
S1130BA0E1F74EE150E05C834B830F2EF9E3AF2E67
S1130BB0B12CF02DBC8EAB8E2DE030E03AAF29AFD6
S1130BC063965FAF4EAF6397E6E1F0E06796FFAFE1
S1130BD0EEAF679700E310E0AB961FAF0EAFAB9795
S1130BE0C557DF4F39832883CB58D040CD55DF4FCD
S1130BF0F983E883C35AD04064E170E0C955DF4FFC
S1130C0079836883C75AD040C352DF4F398328831E
S1130C10CD5DD040CB50DF4F79836883C55FD04032
S1130C20C750DF4F79836883C95FD0400F2EF4E348
S1130C30CF2ED12CF02DCB5FDE4FD982C882C55088
S1130C40D140C95BDE4F79836883C754D140C55B0B
S1130C50DE4FF983E883CB54D140C158DE4F39834A
S1130C602883CF57D140C756DE4FF983E883C9594B
S1130C70D140C356DE4F59834883CD59D140CF5517
S1130C80DE4F19830883C15AD140CF52DE4F3983D6
S1130C902883C15DD140C551DE4F59834883CB5E63
S1130CA0D140C151DE4FB982A882CF5ED140CD5D23
S1130CB0DD4F39832883C352D240C35CDD4FB982F0
S1130CC0A882CD53D240E1E2F0E0CF5BDD4FF9835F
S1130CD0E883C154D2400F2EF8E28F2E912CF02DD0
S1130CE0C75ADD4F99828882C955D240C557DD4F16
S1130CF019830883CB58D240C157DD4FF983E88369
S1130D00CF58D240AAE1B0E0CD56DD4FB983A883D5
S1130D10C359D240CF51DD4FB983A883C15ED240BD
S1130D200F2EFDE1EF2EF12CF02DCB51DD4FF9828A
S1130D30E882C55ED24041E150E0CB50DD4F59839B
S1130D404883C55FD240C95DDC4FD982C882C7528F
S1130D50D340CD5CDC4FF982E882C353D340C95CF5
S1130D60DC4FF982E882C753D3400F2EF9E1CF2E2E
S1130D70D12CF02DC95ADC4FD982C882C755D34033
S1130D80CB57DC4FF982E882C558D340C757DC4FB4
S1130D90B983A883C958D340CF56DC4F59834883BD
S1130DA0C159D340CD53DC4F19830883C35CD3406E
S1130DB0C952DC4FB983A883C75DD340C552DC4F09
S1130DC0F983E883CB5DD340CF5EDB4FB982A88241
S1130DD0C151D440C75DDB4FF983E883C952D44085
S1130DE0C35DDB4F99828882CD52D440C558DB4F16
S1130DF099828882CB57D440A7E1B0E0C158DB4F39
S1130E00B983A883CF57D440C357DB4F5983488352
S1130E10CD58D440C353DB4FB983A883CD5CD440B1
S1130E20CF52DB4F79836883C15DD440C950DB4F17
S1130E3039832883C75FD440C95EDA4F5983488316
S1130E40C751D540C15EDA4F79836883CF51D5400D
S1130E5002E310E0CD5DDA4F19830883C352D54015
S1130E60CF58DA4F19830883C157D540CB58DA4F8E
S1130E7019830883C557D540E5E2F0E0C158DA4F3D
S1130E80F983E883CF57D540CD54DA4F598348834B
S1130E90C35BD540CD53DA4F19830883C35CD54077
S1130EA0C953DA4F79836883C75CD540CB5ED94F89
S1130EB079836883C551D640C75ED94FB983A88367
S1130EC0C951D640C75CD94F39832883C953D6400A
S1130ED0C15BD94F99828882CF54D640C959D94F22
S1130EE0B983A883C756D640C559D94F5983488377
S1130EF0CB56D640C754D94F59834883C95BD64093
S1130F00C552D94F39832883CB5DD640C350D94FBE
S1130F1059834883CD5FD640CB5DD84F398328832E
S1130F20C552D740CD5AD84FF983E883C355D7402B
S1130F30CF59D84FF983E883C156D740C155D84F0C
S1130F40F983E883CF5AD7404CE350E0CD54D84FCF
S1130F5059834883C35BD740CB54D84F59834883C4
S1130F60C55BD740CF5FD74F59834883C150D84022
S1130F70C35ED74F39832883CD51D840CF5AD74F3A
S1130F8059834883C155D840C159D74F39832883E1
S1130F90CF56D840CB57D74FD982C882C558D840EE
S1130FA0CF53D74F39832883C15CD840CD5ED64F09
S1130FB039832883C351D940CB59D64F39832883E9
S1130FC0C556D940C754D64F39832883C95BD94005
S1130FD0C55FD54F39832883CB50DA40C35AD54FE8
S1130FE039832883CD55DA40C353D54F39832883B9
S1130FF0CD5CDA40C15FD44F39832883CF50DB40C6
S1131000C959D44F39832883C756DB40C554D44FBC
S113101039832883CB5BDB40CD5ED34F3983288370
S1131020C351DC40CB59D34F39832883C556DC40A8
S113103028E2CD57D34F48815981C358DC40249FBF
S1131040F001259FF00D1124CB57D34F48815981CE
S1131050C558DC40E40FF51FEE0FFF1FE80FF91F22
S113106011821082249FF001259FF00D1124CD5789
S1131070D34F48815981C358DC40E40FF51FEE0F6C
S1131080FF1FE80FF91F11821082249DF001259D96
S1131090F00D1124E60DF71DEE0FFF1FE80FF91FE9
S11310A011821082269DF001279DF00D1124E40D7C
S11310B0F51DEE0FFF1FE80FF91F11821082C957AB
S11310C0D34F48815981C758DC40249FF001259FA4
S11310D0F00D1124E20DF31DEE0FFF1FE80FF91FB1
S11310E011821082229DF001239DF00D1124E40F42
S11310F0F51FEE0FFF1FE80FF91F11821082C7576B
S1131100D34F48815981C958DC40CF57D34F6881A8
S11311107981C158DC4004DCC657D34F0FB6F8942C
S1131120DEBF0FBECDBFDF91CF911F910F91FF9016
S1131130EF90DF90CF90BF90AF909F908F907F9073
S11311406F905F904F903F902F900895109273028C
S11311501092720280911E0390911F0389319C4F5B
S1131160F1F40CC0582F492F219131910196293166
S11311703C4FC1F750937202409373028091730203
S11311808F93809172028F9383E392E09F938F9366
S11311900E949C220F900F900F900F900895E0E210
S11311A0F3E081E090E0DECF1092750210927402B9
S11311B080917B0290917C0289319C4F21F512C071
S11311C02191319129313C4F29F4909375028093F8
S11311D0740208C00196E417F50791F7909375021D
S11311E080937402809175028F93809174028F931F
S11311F083E492E09F938F930E949C220F900F9020
S11312000F900F900895EDE7F2E04BEC52E081E08F
S113121090E0D6CFCF92DF92EF92FF920F931F937D
S1131220CF93DF930F2EFBE9CF2ED12CF02DF601B7
S113123010820F2EFAE9EF2EF12CF02D83E4F70142
S11312408083FFEF28E03DE3F15020403040E1F798
S113125000C000000E941A010DE910E0F80110829C
S1131260CCE9D0E083E58883FFEF28E03DE3F1504B
S113127020403040E1F700C000000E942101F60147
S1131280108283E2F7018083FFEF28E03DE3F15011
S113129020403040E1F700C00000F801108288834C
S11312A0FFEF28E03DE3F15020403040E1F700C07B
S11312B000000E942101DF91CF911F910F91FF90B7
S11312C0EF90DF90CF900895CF92DF92EF92FF924C
S11312D00F931F93CF93DF930DE910E0F801108271
S11312E00F2EFCE9CF2ED12CF02D83E5F60180835F
S11312F0FFEF28E08DE3F15020408040E1F700C08B
S113130000000E9421010F2EFBE9EF2EF12CF02D9D
S1131310F7011082CAE9D0E083E48883FFEF28E074
S11313208DE3F15020408040E1F700C000000E94AE
S11313301A01F801108213E2F6011083FFEF28E08E
S11313408DE3F15020408040E1F700C000000E948E
S11313502101F70110821883FFEF28E08DE3F1509B
S113136020408040E1F700C000000E941A01DF9194
S1131370CF911F910F91FF90EF90DF90CF90089540
S1131380EF92FF920F931F93CF93DF931F921F92BD
S1131390CDB7DEB788E0ADD880934A0348E061E07A
S11313A081E0C2D880914A038A3F08F4C2C08ED833
S11313B064E670E080E090E00E94A600C9D864EF83
S11313C071E080E090E00E94A600C4D88091FF0202
S11313D0909100030196909300038093FF021A8278
S11313E019824AE050E0BE016F5F7F4F0E946F2276
S11313F061E082E00E949401CE0101960E94AF0157
S1131400C1D98091FF029091000381309105E1F5EB
S113141065E081E00E94940184E592E00E94AF01BE
S113142080916A0290916B02FC01EE0FFF1FE3585A
S1131430FD4F408151810F2EFFECEF2EF2E0FF2E85
S1131440F02DF70151834083880F991FFC01E55863
S1131450FD4F20813181F7013383228355874487EF
S1131460032E000C440B550B02E010E06FE082E009
S11314700E9409026091480370914903F701828137
S113148093810E94B21552C08230910539F5809142
S11314906A0290916B02FC01EE0FFF1FE358FD4FAF
S11314A020813181AFECB2E015963C932E931497D2
S11314B0880F991FFC01E558FD4F80819181179693
S11314C09C938E9316971D963C932E931C97609134
S11314D04803709149030E94B21528C0039749F547
S11314E080916A0290916B02FC01EE0FFF1FE3589A
S11314F0FD4F20813181AFECB2E019963C932E93DD
S11315001897880F991FFC01E558FD4F8081918140
S11315101B969C938E931A971D963C932E931C971F
S113152060914803709149030E94B21580E090E0F5
S113153000C00F900F90DF91CF911F910F91FF90FA
S1131540EF900895EF92FF920F931F93CF93DF9341
S113155033D8809178028739E8F1909177029639EF
S1131560C8F5909176029639A8F50F2EF8E2EF2E81
S1131570FF24F394F02D0AE211E0C2E8809178028E
S1131580863950F490917702973930F09091760231
S1131590963908F090C0A3C0873908F490C09091A0
S11315A07702973908F09BC090917602973930F012
S11315B080917702873908F461C091C0873908F4B3
S11315C05DC080917702873908F458C0973908F4D0
S11315D055C085C0863908F049C0809177028739A3
S11315E070F090917602963950F40E94DC020E94C9
S11315F0630282E88093280180932A0170C08639AF
S1131600A8F580917602873988F10F2EF8E2EF2E43
S1131610FF24F394F02D12E8CAE2D1E0809178021D
S1131620863950F490917702973930F09091760290
S1131630963908F04AC053C0873908F44AC09091DB
S11316407702973908F04BC090917602973928F0C9
S113165080917702873908F142C08739F0F0809190
S113166077028739D0F09739C0F039C00E946302FD
S113167082E88093280180932A0131C00E94DC0211
S11316800E946302F7011082F801C0836EE170E0EA
S113169080E090E00E94A60071CF0E94DC020E94CC
S11316A06302F701108318826EE170E080E090E03D
S11316B00E94A600B3CF873908F476CF10C080917A
S11316C07602873908F074CFD9CF873908F4BCCFB4
S11316D006C080917602873908F0BACFDECF50DE9B
S11316E080E090E0DF91CF911F910F91FF90EF90F8
S11316F008950097D1F46130710551F442305105D9
S113170009F414C74C30510511F00C94351511C768
S11317106D30710509F017C54C30510509F40CC73B
S11317204E30510509F001C70AC78130910511F502
S11317306115710531F44D30510511F00C943915D2
S113174001C76230710521F44330510571F4FDC6BF
S11317506C30710509F008C54D30510509F4F8C61F
S11317604B30510509F0E1C6F6C64E31510509F07A
S1131770DCC6F4C682309105D1F46130710551F4B0
S11317804115510509F4EDC64C30510511F00C9486
S11317903D15EAC66330710509F0F8C444305105BB
S11317A009F4E5C64A30510509F0BFC6E3C68330E3
S11317B0910519F56230710531F44130510511F08C
S11317C00C944115DAC66430710531F44530510585
S11317D011F00C944515D4C66A30710509F0E5C4BE
S11317E04B30510509F4CFC64930510509F4CEC632
S11317F04B31510509F099C6CCC684309105E9F402
S11318006330710549F44230510509F4C5C64A30C4
S1131810510509F08AC6C3C66530710509F0D3C401
S11318204630510509F4BEC64830510509F4BDC619
S11318304032510509F079C6BBC6FA0185309105DD
S113184079F56430710531F44330510511F00C948D
S11318504915B1C668307105C9F44930510589F498
S11318608FEF8093280180932A010E94630264E62B
S113187070E080E090E00E94A60022E030E00C944A
S113188032154730510509F050C698C666307105C7
S113189009F0AAC44730510511F00C944D1591C6B6
S11318A086309105E9F46730710549F448305105F3
S11318B009F48AC64431510509F037C688C6653033
S11318C0710509F0A3C44830510509F483C64430B6
S11318D0510509F482C64032510509F026C680C676
S11318E08730910511F56630710531F445305105A5
S11318F011F00C94511577C66830710549F44530E0
S1131900510509F473C64930510509F00EC671C674
S11319106431710509F088C44B30510509F46CC673
S11319204531510509F001C66AC68830910549F56B
S11319306930710549F44A30510509F463C64231EE
S1131940510509F0F2C561C66730710549F44431A7
S1131950510509F45DC64630510509F0E6C55BC67C
S11319606530710509F071C44430510509F456C657
S11319704630510509F455C64032510509F0D5C524
S113198053C68930910509F063C068307105C9F404
S11319904530510589F40E94630286E98093280149
S11319A080932A0164E670E080E090E00E94A60043
S11319B023E030E00C9432154730510509F0B5C5E9
S11319C036C66A30710511F54B305105B1F40E94E9
S11319D063021092280186E980932A0164E670E08C
S11319E080E090E00E94A60082E00E94790286399D
S11319F0D8F321E030E00C9432154B31510509F451
S1131A0019C64330510509F090C517C662317105F6
S1131A1009F028C441315105B1F40E9463021092C7
S1131A20280186E980932A0164E670E080E090E072
S1131A300E94A60082E00E9479028639D8F321E050
S1131A4030E00C9432154331510509F06EC5F8C5E8
S1131A508A30910509F04DC069307105E9F44830C8
S1131A60510509F4F0C54231510509F05EC50E94E3
S1131A7063021092280186E980932A0164E670E0EB
S1131A8080E090E00E94A60082E00E9479028639FC
S1131A90D8F321E030E0E6C76330710549F4423001
S1131AA0510509F4D3C54430510509F03EC5D1C5EB
S1131AB06B30710509F0E4C34C30510509F4CCC511
S1131AC04031510509F031C50E946302109228018A
S1131AD086E980932A0164E670E080E090E00E9449
S1131AE0A60082E00E9479028639D8F321E030E032
S1131AF0B9C78B309105E9F56A30710569F44B314A
S1131B00510509F4ACC54330510509F4ABC549305E
S1131B10510509F00AC5A9C56C30710549F4413075
S1131B20510509F4A5C54D30510509F0FEC4A3C5FE
S1131B306031710509F0ADC34F30510509F49EC5FC
S1131B404131510509F0F1C40E9463021092280149
S1131B5086E980932A0164E670E080E090E00E94C8
S1131B60A60082E00E9479028639D8F321E030E0B1
S1131B7079C78C30910519F56B30710549F44A30F9
S1131B80510509F47EC54031510509F0CEC47CC528
S1131B906D30710521F4EF2B09F0C7C478C56130AD
S1131BA0710509F087C3EF2B09F474C54230510560
S1131BB009F473C54D31510509F0B7C471C58D30B1
S1131BC0910509F56C30710549F44130510509F46A
S1131BD06AC54B30510509F0A8C468C56115710583
S1131BE029F44130510509F060C763C56E307105B1
S1131BF009F071C34631510509F45EC54F305105F2
S1131C0009F093C45CC58E309105E1F46F30710521
S1131C1029F44031510509F04CC754C56D307105A4
S1131C2041F44C30510509F450C5EF2B09F07DC443
S1131C304FC56631710509F05BC34232510509F0A5
S1131C4074C449C58F309105E9F46E30710549F4C7
S1131C504D30510509F442C54631510509F065C4BA
S1131C6040C56031710509F051C34B30510509F489
S1131C703BC54131510509F43AC54631510509F0D6
S1131C8054C438C58031910509F049C06F307105DD
S1131C9029F44E30510509F010C72FC56B3071057A
S1131CA0E9F44C30510509F42BC54A30510509F0CB
S1131CB03CC40E9463021092280186E980932A01A1
S1131CC064E670E080E090E00E94A60082E00E945A
S1131CD079028639D8F321E030E0C4C66131710558
S1131CE009F02FC34731510509F40DC5423151059F
S1131CF009F01BC40E9463021092280186E98093B4
S1131D002A0164E670E080E090E00E94A60082E090
S1131D100E9479028639D8F321E030E0A3C68131EC
S1131D20910509F049C060317105E9F44F3051055E
S1131D3009F4ECC44B30510509F0F7C30E94630267
S1131D401092280186E980932A0164E670E080E01D
S1131D5090E00E94A60082E00E9479028639D8F3BE
S1131D6021E030E07FC662317105E9F44331510569
S1131D7009F4CFC44930510509F0D7C30E94630266
S1131D801092280186E980932A0164E670E080E0DD
S1131D9090E00E94A60082E00E9479028639D8F37E
S1131DA021E030E05FC66731710509F0D7C24831E0
S1131DB0510509F0BAC3B0C482319105A9F5633164
S1131DC0710529F44431510509F07BC6A8C4693072
S1131DD0710549F44A30510509F4A4C44830510549
S1131DE009F0A3C3A2C46131710509F0C5C2403131
S1131DF05105A9F40E9463021092280186E9809398
S1131E002A0164E670E080E090E00E94A60082E08F
S1131E100E9479028639D8F322E030E023C64731A4
S1131E20510509F082C384C483319105C9F4643136
S1131E30710549F44531510509F47DC44730510514
S1131E4009F073C37BC46231710509F0A3C2413147
S1131E50510509F476C44930510509F066C374C4C8
S1131E6084319105E9F46331710529F44231510556
S1131E7009F02BC66CC46730710549F4483051052C
S1131E8009F468C44630510509F04FC366C465318E
S1131E90710509F090C24532510509F046C360C48A
S1131EA085319105E9F46431710509F095C2433136
S1131EB0510509F458C44730510509F036C30E944E
S1131EC0DC0203C00E94DC023DDB8091780287398A
S1131ED008F0FFC580917602873908F000C6F2CF7A
S1131EE08631910569F46E30710509F082C24D3076
S1131EF0510509F43BC44F30510509F016C339C4E8
S1131F0087319105C9F46131710549F440315105B6
S1131F1009F432C44231510509F007C330C46831B1
S1131F20710509F073C24931510509F42BC44A31D2
S1131F30510509F0FAC229C488319105C9F4673101
S1131F40710529F44131510509F0EFC221C4693109
S1131F50710529F44632510509F0E7C21CC46A31FF
S1131F60710509F060C24732510509F0DEC216C49A
S1131F708931910549F46831710509F062C247312C
S1131F80510509F0D2C20DC48A31910549F4683172
S1131F90710509F063C24731510509F0C6C204C492
S1131FA08B319105C9F46A30710569F443305105E8
S1131FB009F4FDC34B30510509F4FCC34930510504
S1131FC009F0B3C2FAC36B31710509F09DC24A30FE
S1131FD0510509F0AAC2F4C38C31910569F4611565
S1131FE0710509F048C24D30510509F4ECC3413084
S1131FF0510509F092C2EAC38D31910581F4613033
S1132000710509F040C2EF2B09F4E3C342305105D6
S113201009F4E2C34C30510509F087C2E0C38E31A4
S1132020910569F46230710509F035C243305105F8
S113203009F4D8C34130510509F077C2D6C38F31B2
S1132040910569F46430710509F02DC245305105DC
S113205009F4CEC34330510509F067C2CCC38032C2
S1132060910589F46530710509F024C246305105A3
S113207009F4C4C34430510509F4C3C348305105BD
S113208009F053C2C1C38132910569F46630710508
S113209009F017C24530510509F4B9C34730510559
S11320A009F043C2B7C38232910549F46631710520
S11320B009F00EC24E30510509F037C2AEC3833267
S11320C0910569F46F30710509F009C24031510579
S11320D009F4A6C34E30510509F027C2A4C38432C3
S11320E0910569F46331710509F000C24431510569
S11320F009F49CC34231510509F017C29AC38532D1
S1132100910549F46531710509F0F7C14431510570
S113211009F00BC291C38632910549F46931710506
S113212009F0F2C14831510509F0FFC188C387970E
S113213009F0EAC16A31710509F0E6C14831510577
S113214009F0F3C17FC36115710509F0CEC44130B4
S1132150510509F47AC34C31510509F479C34D3062
S1132160510509F0DAC177C36130710509F0CCC1BA
S1132170CA018D7F892B09F471C34D31510509F4CE
S113218070C34C30510509F0D0C16EC36230710583
S113219009F0BAC19A012D7F2130310509F462C4D6
S11321A04E31510509F0C1C162C36330710509F0B4
S11321B0ABC1CA01877F029709F45CC3443051055F
S11321C009F0B3C15AC36430710509F09DC14330AD
S11321D0510509F455C34530510509F454C34F3131
S11321E0510509F0A2C152C36530710509F08CC1D3
S11321F0CA018D7F049709F44CC34032510509F498
S11322004BC34830510509F090C149C3663071058C
S113221009F07AC1CA018D7F059709F443C341329D
S1132220510509F082C141C36730710509F06CC1E1
S11322304630510509F43CC34830510509F43BC309
S11322404431510509F071C139C36830710509F091
S11322505BC14930510509F434C3ED7F359709F06A
S113226064C132C36930710509F04EC1CA018D7F62
S1132270089709F42CC34231510509F056C12AC309
S11322806A30710509F040C1EF7E3B9709F04DC1FA
S113229024C36B30710509F037C14A30510509F484
S11322A01FC34C30510509F41EC34031510509F0D8
S11322B03CC11CC36C30710509F026C14D30510579
S11322C009F417C34B30510509F416C341305105C5
S11322D009F02BC114C36D30710509F015C1CA0191
S11322E08D7F0C9709F40EC3EF2B09F01EC10DC3AB
S11322F06E30710509F008C1CA018D7F0D9709F48C
S113230007C34631510509F010C105C36F3071058B
S113231049F44E30510509F401C34031510509F027
S113232004C1FFC281E06337710509F080E08823AE
S113233009F4EAC081E0B39709F080E08111F4C2A6
S1132340E3C06031710509F0DFC04131510509F482
S1132350EEC2EB7F3B9709F0E8C0ECC26131710536
S113236009F0D2C0CA018D7F409709F4E6C2473113
S1132370510509F0DAC0E4C26231710509F0C4C044
S1132380CA018D7F419709F4DEC24930510509F035
S1132390CCC0DCC26331710509F0B6C044315105CB
S11323A009F4D7C24231510509F4D6C24432510569
S11323B009F0BBC0D4C26431710509F0A5C0433132
S11323C0510509F4CFC24730510509F4CEC2453155
S11323D0510509F0AAC0CCC26531710509F094C059
S11323E04532510509F4C7C24431510509F09DC075
S11323F0C5C26631710509F087C04E30510509F434
S1132400C0C24232510509F090C0BEC267317105A5
S113241009F07AC04831510509F4B9C24131510576
S113242009F083C0B7C26831710509F06DC0CA01F3
S11324304997029708F4B1C24731510509F075C0B4
S1132440AFC26931710509F05FC04831510509F423
S1132450AAC24632510509F068C0A8C26A317105A2
S113246009F052C04831510509F4A3C2473251055D
S113247009F05BC0A1C26C31710509F045C0EF2BB6
S113248009F053C09CC26D317105F1F5413051051D
S113249009F04BC097C26E317105B1F54230510558
S11324A009F043C092C26F31710571F54430510592
S11324B0E1F58EC26032710539F545305105A9F553
S11324C08AC26132710501F54630510571F586C243
S11324D062327105C9F44631510539F582C263325D
S11324E0710591F44F30510501F57EC264327105D6
S11324F059F443315105C9F47AC26532710521F4A6
S11325004531510591F476C26632710521F44931A1
S1132510510559F472C2672B41F44115510509F470
S11325206FC24D30510509F46EC2089521E030E0C8
S113253099C222E030E096C223E030E093C221E069
S113254030E090C223E030E08DC221E030E08AC266
S113255022E030E087C223E030E084C226E030E0AD
S113256081C221E030E07EC223E030E07BC221E082
S113257030E078C222E030E075C221E030E072C27F
S113258021E030E06FC222E030E06CC223E030E0B2
S113259069C221E030E066C221E030E063C223E09A
S11325A030E060C221E030E05DC222E030E05AC297
S11325B026E030E057C221E030E054C223E030E0AE
S11325C051C222E030E04EC222E030E04BC221E0B2
S11325D030E048C223E030E045C221E030E042C2AE
S11325E025E030E03FC223E030E03CC222E030E0AE
S11325F039C223E030E036C222E030E033C221E0C9
S113260030E030C222E030E02DC223E030E02AC2C4
S11326102EE030E027C223E030E024C223E030E0A3
S113262021C222E030E01EC227E030E01BC222E0DB
S113263030E018C223E030E015C222E030E012C2DC
S113264023E030E00FC223E030E00CC223E030E0AE
S113265009C222E030E006C222E030E003C222E0F8
S113266030E000C223E030E0FDC121E030E0FAC1F7
S113267022E030E0F7C121E030E0F4C122E030E0B4
S1132680F1C121E030E0EEC122E030E0EBC122E014
S113269030E0E8C123E030E0E5C122E030E0E2C10F
S11326A027E030E0DFC123E030E0DCC121E030E0AE
S11326B0D9C122E030E0D6C123E030E0D3C123E029
S11326C030E0D0C121E030E0CDC122E030E0CAC129
S11326D021E030E0C7C127E030E0C4C122E030E0AF
S11326E0C1C123E030E0BEC123E030E0BBC122E041
S11326F030E0B8C123E030E0B5C121E030E0B2C140
S113270023E030E0AFC12BE030E0ACC123E030E0A7
S1132710A9C123E030E0A6C12AE030E0A3C121E052
S113272030E0A0C121E030E09DC122E030E09AC158
S11327302FE030E097C122E030E094C123E030E0A4
S113274091C122E030E08EC122E030E08BC121E073
S113275030E088C123E030E085C121E030E082C16F
S113276027E030E07FC123E030E07CC121E030E0AD
S113277079C122E030E076C123E030E073C122E089
S113278030E070C121E130E06DC120E130E06AC188
S113279021E030E067C127E030E064C127E030E0A9
S11327A061C122E130E05EC12BE030E05BC121E099
S11327B030E058C123E030E055C122E030E052C19E
S11327C021E030E04FC129E030E04CC12DE030E0A1
S11327D049C12CE030E046C12DE030E043C129E09E
S11327E030E040C12DE030E03DC12CE030E03AC1A2
S11327F02DE030E037C12CE030E034C12DE030E092
S113280031C12CE030E02EC129E030E02BC12CE0B6
S113281030E028C129E030E025C121E030E022C1C8
S11328202CE030E01FC122E030E01CC123E030E0A6
S113283019C12DE030E016C121E030E013C129E0D8
S113284030E010C129E030E00DC121E030E00AC1E0
S113285021E030E007C121E030E004C121E030E0B4
S113286001C121E030E0FEC021E030E0FBC021E006
S113287030E0F8C021E030E0F5C021E030E0F2C003
S113288021E030E0EFC021E030E0ECC021E030E0B6
S1132890E9C021E030E0E6C027E030E0E3C021E019
S11328A030E0E0C021E030E0DDC021E030E0DAC01B
S11328B021E030E0D7C021E030E0D4C021E030E0B6
S11328C0D1C021E030E0CEC021E030E0CBC021E037
S11328D030E0C8C021E030E0C5C021E030E0C2C033
S11328E021E030E0BFC021E030E0BCC021E030E0B6
S11328F0B9C021E030E0B6C021E030E0B3C021E04F
S113290030E0B0C021E030E0ADC021E030E0AAC04A
S113291021E030E0A7C021E030E0A4C021E030E0B5
S1132920A1C021E030E09EC021E030E09BC021E066
S113293030E098C021E030E095C021E030E092C062
S113294021E030E08FC021E030E08CC021E030E0B5
S113295089C021E030E086C021E030E083C021E07E
S113296030E080C021E030E07DC021E030E07AC07A
S113297021E030E077C021E030E074C021E030E0B5
S113298071C021E030E06EC021E030E06BC021E096
S113299030E068C021E030E065C021E030E062C092
S11329A021E030E05FC021E030E05CC021E030E0B5
S11329B059C021E030E056C021E030E053C020E0AF
S11329C030E050C020E030E04DC020E030E04AC0AC
S11329D020E030E047C020E030E044C020E030E0B8
S11329E041C028E030E03EC020E030E03BC020E0C1
S11329F030E038C028E030E035C020E030E032C0BC
S1132A0021E030E02FC021E030E02CC026E030E0AF
S1132A1029C025E030E026C025E030E023C025E0D1
S1132A2030E020C026E030E01DC025E030E01AC0D0
S1132A3026E030E017C027E030E014C027E030E0A3
S1132A4011C022E030E00EC026E030E00BC025E0EB
S1132A5030E008C023E030E005C020E030E002C0F0
S1132A6020E030E0822F932F08954D31510571F20B
S1132A705CCD4C31510569F250CD4D31510561F2B7
S1132A8054CD4E31510559F250CD4F31510551F2CB
S1132A904CCD4F31510549F248CD4132510541F2F7
S1132AA044CD4132510539F240CD4C31510531F21A
S1132AB034CD4332510529F238CD4332510521F248
S1132AC034CD4432510519F230CD4432510511F25E
S1132AD02CCD80917702873908F4F4C9BECF809158
S1132AE07702873908F4EEC9BBCF6632710509F461
S1132AF00ECD1BCDEF92FF920F931F93CF93DF93D5
S1132B008091740290917502019729F10BE712E00C
S1132B10C1E0D0E080E090E07E0121E0E21AF1081B
S1132B20F801428153810E5F1F4F60817181880FCC
S1132B30991FFC01E558FD4F808191810E94790B1A
S1132B4021960E940604C7012091740230917502F7
S1132B502C173D0709F7DF91CF911F910F91FF903B
S1132B60EF9008958F929F92AF92BF92CF92DF928F
S1132B70EF92FF920F931F93CF93DF93EC014B01DE
S1132B800E94CE03EFECF2E0A284B384C084D1842B
S1132B90E680F7800481158122813381408151814F
S1132BA0B401CE010E946F050E94D408A3DF0E94E5
S1132BB0A60810926B0210926A02809172029091A0
S1132BC07302181619060CF051C680E090E00F2E1F
S1132BD0FFE5CF2EF2E0DF2EF02D0F2EF8E2EF2EE0
S1132BE0FF24F394F02DBB24BA94CAE2D1E00F2E53
S1132BF0F6E9AF2EF02D880F991FFC01E758FD4F21
S1132C0020813181032E000C440B550B02E010E0AF
S1132C1064E082E00E940902E0916A02F0916B0292
S1132C20EE0FFF1FE558FD4F20813181032E000C6C
S1132C30440B550B68E082E00E940902E0916A02AD
S1132C40F0916B02EE0FFF1FE358FD4F208131819D
S1132C50032E000C440B550B6CE082E00E94090229
S1132C60E0916A02F0916B02EE0FFF1FE45EFC4FED
S1132C7020813181032E000C440B550B64E081E06C
S1132C800E940902E0916A02F0916B02EE0FFF1FAD
S1132C90E25EFC4F20813181032E000C440B550B66
S1132CA068E081E00E940902E0916A02F0916B02FF
S1132CB0EE0FFF1FE05EFC4F20813181032E000CDC
S1132CC0440B550B6CE081E00E940902E0916A021A
S1132CD0F0916B02EE0FFF1FE25EFC4F0190F0815A
S1132CE0E02D3197E231F10508F0D1C48827EE5880
S1132CF0FF4F8F4F0C944E220E94DC020E94F5027B
S1132D0017C062E370E080E090E00E94A60004C077
S1132D100E94DC020E94F50280917802873920F437
S1132D20809176028739A0F380917702873980F306
S1132D3080917802873908F0CDC480917602873972
S1132D4008F0CEC4DECF62E370E080E090E00E9441
S1132D50A6001F9282E08F93DF92CF920E949C2262
S1132D600F900F900F900F90A3C4F701B082B88218
S1132D700E94630268E171E080E090E00E94A60096
S1132D800E94690264EF71E080E090E00E94A60076
S1132D9081E00E9479028639D8F30E94DC0217C0D0
S1132DA062E370E080E090E00E94A60004C00E940C
S1132DB0DC020E94F50280917802873920F4809128
S1132DC076028739A0F380917702873980F3809166
S1132DD07802873908F08AC480917602873908F02E
S1132DE08BC4DECF62E370E080E090E00E94A60036
S1132DF05FC4F701B082B8820E94630268E171E0A7
S1132E0080E090E00E94A6000E94710264EF71E0ED
S1132E1080E090E00E94A60082E00E947902863958
S1132E20D8F30E94DC0217C062E370E080E090E017
S1132E300E94A60004C00E94DC020E94F502809158
S1132E407802873920F4809176028739A0F3809143
S1132E507702873980F380917802873908F052C469
S1132E6080917602873908F053C4DECF62E370E0C4
S1132E7080E090E00E94A6001BC4F701B082B882F3
S1132E800E94710268EE73E080E090E00E94A60068
S1132E9082E00E9479028639D8F31F9282E08F93F0
S1132EA0DF92CF920E949C220F900F900F900F9070
S1132EB0FFC3F701B082B8820E9463026CE771E03D
S1132EC080E090E00E94A6000E94690260E971E03F
S1132ED080E090E00E94A60082E00E947902863998
S1132EE0D8F30E94660268EE73E080E090E00E94EE
S1132EF0A600DEC3F701B082B8820E94630268E1D3
S1132F0071E080E090E00E94A6000E9471026EE5EC
S1132F1071E080E090E00E94A60082E00E947902C5
S1132F208639D8F30E94660268EE73E080E090E090
S1132F300E94A600BDC3F701B082B8820E9463025A
S1132F406CE271E080E090E00E94A6000E946602BC
S1132F50AFC30E947102F701B082B88268E572E0E3
S1132F6080E090E00E94A60082E00E947902863907
S1132F70D8F30E94660264E670E080E090E00E946C
S1132F80A60096C3F701B082B8820E94710264EA77
S1132F9076E080E090E00E94A60082E00E94790240
S1132FA08639D8F30E94DC020E94F50217C062E35E
S1132FB070E080E090E00E94A60004C00E94DC0261
S1132FC00E94F50280917802873920F4809176027C
S1132FD08739A0F380917702873980F38091780252
S1132FE0873908F09BC380917602873908F09CC327
S1132FF0DECF62E370E080E090E00E94A60058C358
S11330000E94DC020E94A20A17C062E370E080E022
S113301090E00E94A60004C00E94DC020E94F50217
S113302080917802873920F4809176028739A0F361
S113303080917702873980F380917802873908F08C
S113304079C380917602873908F07AC3DECF6EE1C6
S113305070E080E090E00E94A600F701A082A882C0
S11330600E94630268EC70E080E090E00E94A60099
S11330700E94DC0217C062E370E080E090E00E94EE
S1133080A60004C00E94DC020E94F502809178022E
S1133090873920F4809176028739A0F380917702F2
S11330A0873980F380917802873908F04FC3809183
S11330B07602873908F050C3DECF6EE170E080E01D
S11330C090E00E94A600F4C2F701B082B8820E9488
S11330D0630268E171E080E090E00E94A6000E9433
S11330E0690264EF71E080E090E00E94A60081E054
S11330F00E9479028639D8F30E94DC0217C062E389
S113310070E080E090E00E94A60004C00E94DC020F
S11331100E94F50280917802873920F4809176022A
S11331208739A0F380917702873980F38091780200
S1133130873908F017C380917602873908F018C3DD
S1133140DECF6EE170E080E090E00E94A600F7011F
S1133150A082A8820E94630264E670E080E090E0AE
S11331600E94A6000E94660268E873E180E090E095
S11331700E94A6009DC20E94710264EF71E080E08B
S113318090E00E94A60082E00E9479028639D8F37A
S11331900E94DC0217C062E370E080E090E00E94CD
S11331A0A60004C00E94DC020E94F502809178020D
S11331B0873920F4809176028739A0F380917702D1
S11331C0873980F380917802873908F0D7C28091DB
S11331D07602873908F0D8C2DECF62E370E080E07F
S11331E090E00E94A60064C20E94690264EF71E04C
S11331F080E090E00E94A60082E00E947902863975
S1133200D8F30E94DC0217C062E370E080E090E033
S11332100E94A60004C00E94DC020E94F502809174
S11332207802873920F4809176028739A0F380915F
S11332307702873980F380917802873908F0AAC22F
S113324080917602873908F0ABC2DECF62E370E08A
S113325080E090E00E94A6002BC2F701A082A88221
S11332600E9463026CEB72E080E090E00E94A60092
S11332700E94690264E670E080E090E00E94A6008B
S113328082E00E9479028639D8F30E94660262E3E2
S113329070E080E090E00E94A6000E94DC0217C06B
S11332A062E370E080E090E00E94A60004C00E9407
S11332B0DC020E94F50280917802873920F4809123
S11332C076028739A0F380917702873980F3809161
S11332D07802873908F06AC280917602873908F04B
S11332E06BC2DECF0E9466026CE271E080E090E087
S11332F00E94A600DDC1F701B082B8820E94630279
S113330068E171E080E090E00E94A6000E947102F2
S113331064EF71E080E090E00E94A60083E00E94E8
S113332079028639D8F30E94DC0217C062E370E0A8
S113333080E090E00E94A60004C00E94DC020E948B
S1133340F50280917802873920F4809176028739DA
S1133350A0F380917702873980F3809178028739CE
S113336008F036C280917602873908F02BC2DECF8E
S11333706EE170E080E090E00E94A600F701A08278
S1133380A8820E94630264E670E080E090E00E94FC
S1133390A6000E94660268E873E180E090E00E9463
S11333A0A60086C1F701B082B8820E94630268E178
S11333B071E080E090E00E94A6000E94DC0217C049
S11333C062E370E080E090E00E94A60004C00E94E6
S11333D0DC020E94F50280917802873920F4809102
S11333E076028739A0F380917702873980F3809140
S11333F07802873908F0F2C180917602873908F0A3
S1133400F3C1DECF6EE170E080E090E00E94A600A0
S11334100E946302F701A082A8820E94DC0217C006
S113342062E370E080E090E00E94A60004C00E9485
S1133430DC020E94F50280917802873920F48091A1
S113344076028739A0F380917702873980F38091DF
S11334507802873908F0CEC180917602873908F066
S1133460CFC1DECF6EE170E080E090E00E94A60064
S1133470F701B082B8820E94630268E171E080E0E3
S113348090E00E94A6000E94710283E00E947902EB
S11334908639D8F30E94DC0217C062E370E080E052
S11334A090E00E94A60004C00E94DC020E94F50283
S11334B080917802873920F4809176028739A0F3CD
S11334C080917702873980F380917802873908F0F8
S11334D09DC180917602873908F09EC1DECF6EE1EE
S11334E070E080E090E00E94A600E2C0F701A082B4
S11334F0A8820E94630260E971E080E090E00E948B
S1133500A6000E9469026CE271E080E090E00E94F3
S1133510A60081E00E9479028639D8F30E94DC0279
S113352017C062E370E080E090E00E94A60004C04F
S11335300E94DC020E94F50280917802873920F40F
S1133540809176028739A0F380917702873980F3DE
S113355080917802873908F06BC1809176028739AF
S113356008F060C1DECF6EE170E080E090E00E9480
S1133570A6009EC0F701B082B8820E94630268E18F
S113358071E080E090E00E94A6000E94710264EF66
S113359071E080E090E00E94A60083E00E9479023E
S11335A08639D8F30E94DC0217C062E370E080E041
S11335B090E00E94A60004C00E94DC020E94F50272
S11335C080917802873920F4809176028739A0F3BC
S11335D080917702873980F380917802873908F0E7
S11335E02DC180917602873908F02EC1DECF6EE1BD
S11335F070E080E090E00E94A6000E946302F70160
S1133600A082A88268EC70E080E090E00E94A600AE
S11336100E94DC0217C062E370E080E090E00E9448
S1133620A60004C00E94DC020E94F5028091780288
S1133630873920F4809176028739A0F3809177024C
S1133640873980F380917802873908F009C1809125
S11336507602873908F0FEC0DECF6EE170E080E0CC
S113366090E00E94A600F701A082A8820E94630253
S113367064E670E080E090E00E94A6000E9466028A
S113368068E873E180E090E00E94A60011C061E068
S113369081E00E94940183E692E00E94AF011F92B0
S11336A01F92DF92CF9248D70F900F900F900F90F8
S11336B080916A0290916B02019690936B028093C1
S11336C06A022091720230917302821793070CF4FC
S11336D092CACCC080917702873908F412CB33CBDD
S11336E080917702873908F40CCB2DCB8091770237
S11336F0873908F455CB76CB80917702873908F463
S11337004FCB70CB80917702873908F48DCBAECB49
S113371080917702873908F487CBA8CB8091770210
S1133720873908F444CC65CC80917702873908F452
S11337303ECC5FCC80917702873908F466CC87CC85
S113374080917702873908F460CC81CC809177022C
S1133750873908F490CCB1CC80917702873908F48A
S11337608ACCABCC80917702873908F4C8CCE9CCF9
S113377080917702873908F4C2CCE3CC8091770238
S1133780873908F408CD29CD80917702873908F468
S113379002CD23CD80917702873908F435CD56CDFB
S11337A080917702873908F42FCD50CD809177022C
S11337B0873908F475CD96CD80917702873908F45E
S11337C06FCD90CD80917702873908F4AFCDD0CDFD
S11337D080917702873908F4A9CDCACD8091770208
S11337E0873908F4EDCD0ECE80917702873908F43D
S11337F0E7CD08CE80917702873908F411CE32CE16
S113380080917702873908F40BCE2CCE8091770211
S1133810873908F442CE63CE80917702873908F461
S11338203CCE5DCE80917702873908F47ACE9BCE68
S113383080917702873908F474CE95CE809177020F
S1133840873908F4B2CED3CE80917702873908F451
S1133850ACCECDCE80917702873908F4DCCEFDCE94
S113386080917702873908F4D6CEF7CE80E090E0D5
S1133870DF91CF911F910F91FF90EF90DF90CF9048
S1133880BF90AF909F908F90089510927102109204
S11338907002709349036093480364C90895CF93F9
S11338A0DF9380911403909115038130910531F5D4
S11338B00E940A096091000270910102C8E0D3E0FD
S11338C08C859D85E2DF0E9464096A857B858091F1
S11338D0000290910102D9DF8091060290910702C3
S11338E0909301028093000280916E0290916F0286
S11338F0019690936F0280936E02EFC0833091051E
S113390031F50E940A096091020270910302C8E035
S1133910D3E08C859D85B9DF0E9464096A857B8527
S11339208091020290910302B0DF80910C02909189
S11339300D02909303028093020280916C02909195
S11339406D02019690936D0280936C02C6C0892B20
S113395009F0C3C080911203909113038130910543
S113396059F561E070E080E090E08FDF0E940A0981
S11339706091000270910102C8E0D3E08A859B85C2
S113398084DF0E94640968857985809100029091A2
S113399001027BDF8091060290910702909301025D
S11339A08093000280916E0290916F020196909331
S11339B06F0280936E0291C08330910559F563E0E4
S11339C070E080E090E061DF0E940A0960910202E9
S11339D070910302C8E0D3E08A859B8556DF0E947C
S11339E064096885798580910202909103024DDF14
S11339F080910C0290910D02909303028093020235
S1133A0080916C0290916D02019690936D02809367
S1133A106C0263C0892B09F060C0809110039091FF
S1133A201103019751F561E070E080E090E02DDF33
S1133A300E940A096091000270910102C8E0D3E07B
S1133A408885998522DF0E9464096E817F81809137
S1133A5000029091010219DF809106029091070201
S1133A60909301028093000280916E0290916F0204
S1133A70019690936F0280936E028091100390914F
S1133A801103039751F5C8E0D3E063E070E08C853F
S1133A909D85FBDE0E940A09609102027091030277
S1133AA088859985F2DE0E9464096E817F81809108
S1133AB0020290910302E9DE80910C0290910D02C2
S1133AC0909303028093020280916C0290916D02A4
S1133AD0019690936D0280936C02DF91CF910895CB
S1133AE0CF93DF938091120390911303813091055A
S1133AF051F50E940A096091000270910102C8E028
S1133B00D3E08A859B85C1DE0E9464096885798536
S1133B108091000290910102B8DE80916E02909132
S1133B206F02019709F010C1809108029091090277
S1133B30909301028093000282E090E090936F02E0
S1133B4080936E0201C18330910551F50E940A09E8
S1133B506091020270910302C8E0D3E08A859B85DC
S1133B6094DE0E94640968857985809102029091AF
S1133B7003028BDE80916C0290916D02019709F033
S1133B80E3C080910C0290910D0290930302809304
S1133B90020282E090E090936D0280936C02D4C0A4
S1133BA0892B09F0D1C080911003909111038130C9
S1133BB0910579F561E070E080E090E066DE0E94B6
S1133BC00A096091000270910102C8E0D3E088857F
S1133BD099855BDE0E9464096E817F818091000279
S1133BE09091010252DE80916E0290916F020197D2
S1133BF009F0AAC0809108029091090290930102F1
S1133C008093000282E090E090936F0280936E02B2
S1133C109BC08330910579F563E070E080E090E02B
S1133C2034DE0E940A096091020270910302C8E026
S1133C30D3E08885998529DE0E9464096E817F819D
S1133C40809102029091030220DE80916C02909197
S1133C506D02019709F078C080910C0290910D02D9
S1133C60909303028093020282E090E090936D02AD
S1133C7080936C0269C0892B09F066C080910E03A1
S1133C8090910F03019769F561E070E080E090E0A6
S1133C90FCDD0E940A096091000270910102C8E0F3
S1133CA0D3E08E819F81F1DD0E9464096C817D8166
S1133CB08091000290910102E8DD80916E02909162
S1133CC06F02019771F48091080290910902909318
S1133CD001028093000282E090E090936F0280934F
S1133CE06E0280910E0390910F03039769F5C8E06B
S1133CF0D3E063E070E08A859B85C7DD0E940A09F2
S1133D0060910202709103028E819F81BEDD0E9448
S1133D1064096C817D818091020290910302B5DD7A
S1133D2080916C0290916D02019771F480910C0264
S1133D3090910D02909303028093020282E090E03E
S1133D4090936D0280936C02DF91CF910895CF938D
S1133D50DF9380911003909111038130910569F5EF
S1133D600E940A096091000270910102C8E0D3E048
S1133D70888599858ADD0E9464096E817F8180919E
S1133D8000029091010281DD80916E0290916F0298
S1133D908130910519F0029709F00FC18091080252
S1133DA090910902909301028093000283E090E0D5
S1133DB090936F0280936E0200C18330910551F598
S1133DC00E940A096091020270910302C8E0D3E0E4
S1133DD0888599855ADD0E9464096E817F8180916E
S1133DE002029091030251DD80916C0290916D0268
S1133DF0019709F0E2C080910C0290910D0290931A
S1133E0003028093020282E090E090936D0280931B
S1133E106C02D3C0892B09F0D0C080910E0390911D
S1133E200F038130910591F561E070E080E090E04E
S1133E302CDD0E940A096091000270910102C8E021
S1133E40D3E08E819F8121DD0E9464096C817D8194
S1133E50809100029091010218DD80916E02909190
S1133E606F028130910519F0029709F0A6C0809184
S1133E70060290910702909301028093000283E06E
S1133E8090E090936F0280936E0297C08330910507
S1133E9079F563E070E080E090E0F7DC0E940A09C5
S1133EA06091020270910302C8E0D3E08E819F8189
S1133EB0ECDC0E9464096C817D8180910202909106
S1133EC00302E3DC80916C0290916D02019709F08A
S1133ED074C080910C0290910D0290930302809320
S1133EE0020282E090E090936D0280936C0265C0C0
S1133EF0892B09F062C080910C0390910D03019706
S1133F0081F561E070E080E090E0BFDC0E940A0986
S1133F106091000270910102C8E0D3E08C819D8120
S1133F20B4DC0E9464096A817B81809100029091D3
S1133F300102ABDC80916E0290916F028130910599
S1133F4011F0029771F48091060290910702909308
S1133F5001028093000283E090E090936F028093CB
S1133F606E0280910C0390910D03039731F5C8E024
S1133F70D3E063E070E08E819F8187DC0E940A09B0
S1133F8060910202709103028C819D817EDC0E940B
S1133F90640980916C0290916D02019771F4809193
S1133FA00C0290910D02909303028093020282E02E
S1133FB090E090936D0280936C02DF91CF9108950D
S1133FC0CF93DF9380910E0390910F03813091057D
S1133FD069F50E940A096091000270910102C8E02B
S1133FE0D3E08E819F8151DC0E9464096C817D81C4
S1133FF0809100029091010248DC80916E029091C0
S11340006F028130910519F0029709F0F3C0809195
S1134010060290910702909301028093000283E0CC
S113402090E090936F0280936E02E4C08330910518
S113403051F50E940A096091020270910302C8E0DE
S1134040D3E08E819F8121DC0E9464096C817D8193
S1134050809102029091030218DC80916C0290918D
S11340606D02019709F0C6C080910C0290910D0277
S1134070909303028093020282E090E090936D0299
S113408080936C02B7C0892B09F0B4C080910C03F3
S113409090910D038130910591F5C8E0D3E061E082
S11340A070E088859985F1DB0E940A09609100021D
S11340B0709101028C819D81E8DB0E9464096A8110
S11340C07B818091000290910102DFDB80916E027E
S11340D090916F028130910519F0029709F08AC01E
S11340E0809106029091070290930102809300024E
S11340F083E090E090936F0280936E027BC08330E4
S1134100910579F5C8E0D3E063E070E0888599858E
S1134110BCDB0E940A0960910202709103028C8147
S11341209D81B3DB0E9464096A817B8180910202D4
S113413090910302AADB80916C0290916D02019729
S113414009F058C080910C0290910D0290930302E3
S11341508093020282E090E090936D0280936C025F
S113416049C0892B09F046C080910A0390910B0342
S11341700197E9F461E070E080E090E086DB0E9462
S11341800A09609100027091010280910A039091E2
S11341900B037BDB0E94640960910C0270910D0299
S11341A0809100029091010270DB0E94AC02809128
S11341B00A0390910B030397E9F4C8E0D3E063E0AA
S11341C070E08C819D8161DB0E940A09609102028A
S11341D0709103028A819B8158DB0E94640960917B
S11341E00C0270910D0280910202909103024DDB4A
S11341F00E94AC02DF91CF910895CF93DF93809119
S11342000C0390910D038130910569F50E940A0910
S11342106091000270910102C8E0D3E08C819D811D
S113422034DB0E9464096A817B8180910002909151
S113423001022BDB80916E0290916F028130910517
S113424019F0029709F086C0809106029091070246
S1134250909301028093000283E090E090936F02B8
S113426080936E0277C08330910551F50E940A094C
S11342706091020270910302C8E0D3E08C819D81B9
S113428004DB0E9464096A817B818091020290911F
S11342900302FBDA80916C0290916D02019709F0A0
S11342A059C080910C0290910D0290930302809367
S11342B0020282E090E090936D0280936C024AC007
S11342C0892B09F047C080910A0390910B03813038
S11342D09105C9F40E940A096091000270910102DB
S11342E080910A0390910B03D0DA0E9464096091D3
S11342F00C0270910D028091000290910102C5DAC6
S11343000E94AC0227C083309105C9F40E940A09B7
S1134310609102027091030280910A0390910B0351
S1134320B4DA0E94640960910C0270910D028091CC
S1134330020290910302A9DA0E94AC020BC0892BFD
S113434049F460910C0270910D0280E090E09DDAD6
S11343500E94AC02DF91CF91089580910A0390915D
S11343600B0381309105C9F40E940A09609100028F
S11343707091010280910A0390910B0386DA0E94E6
S1134380640960910C0270910D0280910002909179
S113439001027BDA0C94AC0208958230910539F164
S11343A083309105C9F40E940A0960910202709158
S11343B0030280910A0390910B0367DA0E94640957
S11343C060910C0270910D0280910202909103029F
S11343D05CDA0C94AC020895892B49F460910C02C8
S11343E070910D0280E090E050DA0C94AC020895D4
S11343F00E94D3020E94890180E185B968EB7BE0C9
S113440080E090E00E94A60010929B0083E48093D9
S11344109A000E941A0160910A0370910B03809123
S11344200C0290910D0231DA3ADA5ADB90DCC8DDE5
S1134430E4DE93DF80E090E00895DB018F939F93A7
S113444035D0BF91AF91A29F800D911DA39F900D78
S1134450B29F900D11240895A1E21A2EAA1BBB1B32
S1134460FD010DC0AA1FBB1FEE1FFF1FA217B3073C
S1134470E407F50720F0A21BB30BE40BF50B661F52
S1134480771F881F991F1A9469F760957095809516
S113449090959B01AC01BD01CF010895EE0FFF1F64
S11344A0881F8BBF0790F691E02D199409D0A59F22
S11344B0900DB49F900DA49F800D911D112408951B
S11344C0A29FB001B39FC001A39F700D811D112451
S11344D0911DB29F700D811D1124911D08954532C7
S11344E0510518F4423008F004C0FB011082CB01DE
S11344F00895BB274A3031F4992322F4BDE2909504
S113450081959F4F01C0BB27FB015527AA27880F20
S1134510991FAA1FA41710F0A41B83955051B9F733
S1134520A05DAA3308F0A95DA193009779F7B111B2
S1134530B1931192CB0126C2CF93DF93CDB7DEB7EF
S1134540AE014A5F5F4FFA0161917191AF018091B1
S113455053039091540303D0DF91CF9108952F9288
S11345603F924F925F926F927F928F929F92AF92FF
S1134570BF92CF92DF92EF92FF920F931F93CF934C
S1134580DF93CDB7DEB72B970FB6F894DEBF0FBE1F
S1134590CDBF6C017B018A01FC01178216828381E5
S11345A081FFBFC1CE0101963C01F6019381F70161
S11345B093FD859193FF81917F01882309F4ADC117
S11345C0853239F493FD859193FF81917F01853282
S11345D021F4B60190E0E6D1E8CF912C212C312CC6
S11345E0FFE1F315D8F08B3279F038F4803279F0AA
S11345F08332A1F4232D20611DC08D3261F08033FC
S113460069F4232D216016C0832D8260382EE32D9A
S1134610E4603E2E2AC0F32DF8601DC037FC2DC087
S113462020ED280F2A3040F08E32B9F436FC75C1E3
S1134630232D2064322E19C036FE06C08AE0989ECF
S1134640200D1124922E11C0EAE02E9E200D11247B
S1134650222EF32DF0623F2E08C08C3621F4832DD8
S11346608068382E02C0883641F4F70193FD8591A5
S113467093FF81917F018111B3CF982F9F7D955432
S1134680933028F40C5F1F4F9FE399830DC083364A
S113469031F0833771F0833509F055C020C0F8013B
S11346A0808189830E5F1F4F88248394912C53014A
S11346B012C02801F2E04F0E511CF801A080B18015
S11346C036FE03C0692D70E002C06FEF7FEFC501B5
S11346D04ED14C018201F32DFF773F2E15C02801E6
S11346E022E0420E511CF801A080B18036FE03C0C6
S11346F0692D70E002C06FEF7FEFC5012DD14C0131
S1134700F32DF0683F2E820133FC19C0822D90E016
S113471088169906A0F4B60180E290E043D12A9469
S1134720F5CFF50137FC859137FE81915F01B60124
S113473090E038D121102A9421E0821A9108811442
S1134740910479F7E1C0843611F0893639F5F8011E
S113475037FE07C060817181828193810C5F1F4F96
S113476008C060817181072E000C880B990B0E5FC5
S11347701F4FF32DFF763F2E97FF09C0909580952C
S1134780709561957F4F8F4F9F4FF0683F2E2AE0C1
S113479030E0A30143D1882E861844C0853731F414
S11347A0232D2F7EB22E2AE030E025C0932D997F51
S11347B0B92E8F36C1F018F4883579F0AEC0803741
S11347C019F0883721F0A9C0E92FE061BE2EB4FEAC
S11347D00DC0FB2DF460BF2E09C034FE0AC0292F82
S11347E02660B22E06C028E030E005C020E130E0AB
S11347F002C020E132E0F801B7FE07C06081718198
S1134800828193810C5F1F4F06C06081718180E0BB
S113481090E00E5F1F4FA30101D1882E8618FB2D57
S1134820FF773F2E36FE0DC0232D2E7FA22E891436
S113483058F434FE0BC032FC09C0832D8E7EA82EA2
S113484005C0B82CA32C03C0B82C01C0B92CA4FEFD
S11348500FC0FE01E80DF11D8081803321F49A2DF3
S1134860997EA92E09C0A2FE06C0B394B39404C0D5
S11348708A2D867809F0B394A3FC10C0A0FE06C06C
S1134880B21480F4280C922C9B180DC0B21458F466
S1134890B60180E290E086D0B394F8CFB21418F455
S11348A02B1802C0982C212CA4FE0FC0B60180E363
S11348B090E078D0A2FE16C0A1FC03C088E790E087
S11348C002C088E590E0B6010CC08A2D867851F0CC
S11348D0A1FE02C08BE201C080E2A7FC8DE2B6011A
S11348E090E060D0891430F4B60180E390E05AD0AF
S11348F09A94F8CF8A94F301E80DF11D8081B601F2
S113490090E050D08110F6CF222009F44ECEB601AB
S113491080E290E047D02A94F7CFF6018681978110
S113492002C08FEF9FEF2B960FB6F894DEBF0FBE39
S1134930CDBFDF91CF911F910F91FF90EF90DF904A
S1134940CF90BF90AF909F908F907F906F905F902B
S11349504F903F902F900895FC0105906150704056
S11349600110D8F7809590958E0F9F1F0895FC0134
S11349706150704001900110D8F7809590958E0F8A
S11349809F1F0895DC01FC01672F71917723E1F7E4
S1134990329704C07C916D9370836291AE17BF0708
S11349A0C8F308950F931F93CF93DF93FB012381E3
S11349B021FD03C08FEF9FEF2CC022FF16C046815C
S11349C05781248135814217530744F4A081B18172
S11349D09D012F5F3F4F318320838C932681378144
S11349E02F5F3F4F3783268314C08B01EC01FB01FB
S11349F00084F185E02D1995892BE1F6D8011696EE
S1134A008D919C911797019617969C938E93169768
S1134A10CE01DF91CF911F910F910895FA01AA273A
S1134A20283051F1203181F1E8946F936E7F6E5FED
S1134A307F4F8F4F9F4FAF4FB1E03ED0B4E03CD09B
S1134A40670F781F891F9A1FA11D680F791F8A1F7E
S1134A50911DA11D6A0F711D811D911DA11D20D0E5
S1134A6009F468943F912AE0269F11243019305D9F
S1134A703193DEF6CF010895462F4770405D419390
S1134A80B3E00FD0C9F7F6CF462F4F70405D4A33DD
S1134A9018F0495D31FD4052419302D0A9F7EACFA5
S1134AA0B4E0A6959795879577956795BA95C9F7D4
S1134AB000976105710508959B01AC010A2E0694C7
S1134AC05795479537952795BA95C9F7620F731F80
S10F4AD0841F951FA01D0895F894FFCFCB
S1134ADC2600220024002500220023001B00450090
S1134AEC46002052200020472000204220000A25A6
S1134AFC64202D3E202564200909202564090925FC
S1134B0C6420000A73697A65206F6620626F743DB5
S1134B1C2564000A73697A65206F66207061746875
S1134B2C3D2564006F62315F6465746563740025B0
S10D4B3C640900627265616B0000F9
S903020CEE
